:100000000C9435000C945D000C945D000C945D0024
:100010000C945D000C945D000C945D000C945D00EC
:100020000C945D000C945D000C945D000C945D00DC
:100030000C945D000C945D000C945D000C945D00CC
:100040000C9420020C945D000C9490020C946A02B3
:100050000C945D000C945D000C945D000C945D00AC
:100060000C945D000C945D003D0411241FBECFEF85
:10007000D8E0DEBFCDBF21E0AAE2B1E001C01D9211
:10008000AE3DB207E1F711E0A0E0B1E0E0EAFDE04B
:1000900002C005900D92AA32B107D9F710E0C5E36E
:1000A000D0E004C02197FE010E94D604C433D107DA
:1000B000C9F70E94C2020C94CE060C940000AF92C5
:1000C000BF92CF92DF92EF92FF920F931F93CF9345
:1000D000DF936C017B018B01040F151FEB015E01A7
:1000E000AE18BF08C017D10759F06991D601ED913C
:1000F000FC910190F081E02DC6010995892B79F7DB
:10010000C501DF91CF911F910F91FF90EF90DF908C
:10011000CF90BF90AF900895CF93DF93FC014481BF
:100120005581608171818DE391E00E945F00EC0157
:1001300042E050E068E171E08DE391E00E945F00F1
:100140008C0F9D1FDF91CF910895FC01538D448D3D
:10015000252F30E0842F90E0821B930B541710F072
:10016000CF96089501970895FC01918D828D98177F
:1001700061F0A28DAE0FBF2FB11D5D968C91928D57
:100180009F5F9F73928F90E008958FEF9FEF089588
:10019000FC01918D828D981731F0828DE80FF11D51
:1001A000858D90E008958FEF9FEF0895FC01918D6C
:1001B000228D892F90E0805C9F4F821B91098F7365
:1001C000992708958DE391E00E94D60021E0892BC4
:1001D00009F420E0822F089580E090E0892B29F037
:1001E0000E94E20081110C9400000895FC01A48D8E
:1001F000A80FB92FB11DA35ABF4F2C91848D90E049
:1002000001968F739927848FA689B7892C93A0892B
:10021000B1898C91837080648C93938D848D9813B5
:1002200006C00288F389E02D80818F7D8083089548
:10023000EF92FF920F931F93CF93DF93EC0181E036
:10024000888F9B8D8C8D98131AC0E889F9898081DD
:1002500085FF15C09FB7F894EE89FF896083E88910
:10026000F98980818370806480839FBF81E090E002
:10027000DF91CF911F910F91FF90EF900895F62E8F
:100280000B8D10E00F5F1F4F0F731127E02E8C8D29
:100290008E110CC00FB607FCFACFE889F98980816E
:1002A00085FFF5CFCE010E94F600F1CFEB8DEC0F6C
:1002B000FD2FF11DE35AFF4FF0829FB7F8940B8F8B
:1002C000EA89FB8980818062CFCFCF93DF93EC01F5
:1002D000888D8823B9F0AA89BB89E889F9898C912E
:1002E00085FD03C0808186FD0DC00FB607FCF7CFEA
:1002F0008C9185FFF2CF808185FFEDCFCE010E94EA
:10030000F600E9CFDF91CF910895CF93DF93EC0111
:1003100088819981009711F00E94780519821882CE
:100320001D821C821B821A82DF91CF910895FC01ED
:1003300080819181009711F00C94780508950F93B6
:100340001F93CF93DF93EC0188819981009759F037
:100350002A813B812617370730F081E0DF91CF916A
:100360001F910F9108958B016F5F7F4F0E940106CF
:10037000009759F0998388831B830A832C813D81E0
:10038000232B59F7FC011082E8CF80E0E7CFEF92F2
:10039000FF920F931F93CF93DF93EC017B018A01B0
:1003A000BA010E949F0181110BC0CE010E948501FC
:1003B000CE01DF91CF911F910F91FF90EF900895A3
:1003C0001D830C83B701888199810E94C706F0CFF5
:1003D000EF92FF920F931F93CF93DF93CDB7DEB7CA
:1003E00062970FB6F894DEBF0FBECDBF8C01CB0174
:1003F000F8011182108213821282158214824AE05F
:100400009E012F5F3F4F7901B9010E946A04F701F5
:1004100001900020E9F73197AF014E195F09B7014C
:10042000C8010E94C70162960FB6F894DEBF0FBEE6
:10043000CDBFDF91CF911F910F91FF90EF90089565
:100440001F920F920FB60F9211242F933F938F9309
:100450009F93AF93BF938091390190913A01A091FE
:100460003B01B0913C013091380123E0230F2D373F
:1004700058F50196A11DB11D2093380180933901D3
:1004800090933A01A0933B01B0933C0180913401D9
:1004900090913501A0913601B09137010196A11DCF
:1004A000B11D8093340190933501A0933601B09330
:1004B0003701BF91AF919F918F913F912F910F90F5
:1004C0000FBE0F901F90189526E8230F0296A11DCE
:1004D000B11DD2CF1F920F920FB60F9211242F93FE
:1004E0003F934F935F936F937F938F939F93AF93BC
:1004F000BF93EF93FF938DE391E00E94F600FF918D
:10050000EF91BF91AF919F918F917F916F915F918B
:100510004F913F912F910F900FBE0F901F90189504
:100520001F920F920FB60F9211242F938F939F93C8
:10053000EF93FF93E0914D01F0914E018081E091A6
:100540005301F091540182FD1BC0908180915601AE
:100550008F5F8F7320915701821741F0E091560110
:10056000F0E0E35CFE4F958F80935601FF91EF9191
:100570009F918F912F910F900FBE0F901F90189504
:100580008081F4CFCF93DF93CDB7DEB762970FB6FC
:10059000F894DEBF0FBECDBF789484B5826084BD71
:1005A00084B5816084BD85B5826085BD85B5816077
:1005B00085BD80916E00816080936E0010928100F5
:1005C00080918100826080938100809181008160B0
:1005D0008093810080918000816080938000809171
:1005E000B10084608093B1008091B00081608093FD
:1005F000B00080917A00846080937A0080917A00C4
:10060000826080937A0080917A00816080937A0082
:1006100080917A00806880937A001092C100E09106
:100620004D01F0914E0182E08083E0914901F0910B
:100630004A011082E0914B01F0914C018FEC8083D4
:1006400010925501E0915101F091520186E08083B2
:10065000E0914F01F0915001808180618083E091B1
:100660004F01F0915001808188608083E0914F01BB
:10067000F0915001808180688083E0914F01F0917A
:10068000500180818F7D80832AE0F22E00E010E00F
:100690008DE391E00E94D6001816190604F58DE34B
:1006A00091E00E94B400609132017091330190EDAD
:1006B000980F9A30F0F4660F771FFB01E65DFE4F4E
:1006C00040815181F49E9001F59E300D1124082E39
:1006D000000C990BC097820F931F918380830115A3
:1006E0001105B1F20E94E200882391F20E940000FD
:1006F000CFCF8C3239F46F5F7F4F709333016093AB
:100700003201EDCFCE010D960E94E8011A821982C6
:100710001C821B821E821D824CE050E06BE171E066
:10072000CE0101960E94C70118861F821A8619867B
:100730001C861B8669817A816115710531F04D81B6
:100740005E81CE0107960E94C701AD84BE84A114CC
:10075000B10409F47BC0C988DA88C114D104B9F0A6
:100760008B859C85C80ED91EB601CE0107960E94C6
:100770009F01882309F46AC02F8138858B859C8569
:10078000B501820F931F0E94C706DC86CB86CE017F
:1007900007960E948C00CE0107960E949701CE0119
:1007A00001960E949701CE010D960E9497018AE260
:1007B000A82E81E0B82ED12CC12C809132019091CD
:1007C00033018430910514F083E090E08C159D0591
:1007D0000CF44EC0F50160817181CE0101960E943A
:1007E000E80118861F821A8619861C861B86698175
:1007F0007A816115710531F04D815E81CE010796D8
:100800000E94C7018B849C84FFEF8F1A9F0AB4015A
:10081000CE0107960E949F0181111DC0CE0107964F
:100820000E948501CE0107960E948C00CE0107969A
:100830000E949701CE0101960E949701F501119245
:1008400011925F01FFEFCF1ADF0AB7CFCE010796F3
:100850000E9485019CCF2F8138858B859C8568E21D
:1008600071E0820F931F0E94C7069C868B86DACFA9
:10087000109233011092320132CFEDE3F1E0138296
:10088000128288EE93E0A0E0B0E084839583A68393
:10089000B7838AE091E09183808385EC90E095872F
:1008A000848784EC90E09787868780EC90E0918B3A
:1008B000808B81EC90E0938B828B82EC90E0958B27
:1008C000848B86EC90E0978B868B118E128E138E24
:1008D000148E0895BB274A3031F4992322F4BDE2E7
:1008E000909581959F4F0C947604BB27FB0155276B
:1008F000AA27880F991FAA1FA41710F0A41B83957D
:100900005051B9F7A05DAA3308F0A95DA1930097F3
:1009100079F7B111B1931192CB010C948F04DC01E2
:10092000FC01672F71917723E1F7329704C07C9126
:100930006D9370836291AE17BF07C8F308952F922D
:100940003F924F925F926F927F928F929F92AF925F
:10095000BF92CF92DF92EF92FF920F931F93CF93AC
:10096000DF93CDB7DEB7CA1BDB0B0FB6F894DEBF43
:100970000FBECDBF09942A88398848885F846E8469
:100980007D848C849B84AA84B984C884DF80EE80B3
:10099000FD800C811B81AA81B981CE0FD11D0FB6BC
:1009A000F894DEBF0FBECDBFED010895EE0FFF1F1F
:1009B0000590F491E02D09940F931F93CF93DF934B
:1009C0008230910510F482E090E0E091DC01F0913A
:1009D000DD0130E020E0B0E0A0E0309799F421158F
:1009E000310509F44AC0281B390B24303105D8F5EC
:1009F0008A819B816115710589F1FB019383828353
:100A0000FE0111C0408151810281138148175907AD
:100A1000E0F04817590799F4109761F012960C937B
:100A2000129713961C933296CF01DF91CF911F91AD
:100A30000F9108950093DC011093DD01F4CF21158F
:100A4000310551F04217530738F0A901DB019A0133
:100A5000BD01DF01F801C1CFEF01F9CF9093DD01B6
:100A60008093DC01CDCFFE01E20FF31F81939193C0
:100A70002250310939832883D7CF2091DA01309170
:100A8000DB01232B41F420910201309103013093CB
:100A9000DB012093DA012091000130910101211541
:100AA000310541F42DB73EB7409104015091050145
:100AB000241B350BE091DA01F091DB01E217F3071B
:100AC000A0F42E1B3F0B2817390778F0AC014E5FBE
:100AD0005F4F2417350748F04E0F5F1F5093DB011F
:100AE0004093DA01819391939FCFF0E0E0E09CCFB7
:100AF000CF93DF930097E9F0FC01329713821282C3
:100B0000A091DC01B091DD01ED0130E020E0109713
:100B1000A1F420813181820F931F2091DA0130915D
:100B2000DB012817390709F061C0F093DB01E0937E
:100B3000DA01DF91CF910895EA01CE17DF07E8F5DA
:100B40004A815B819E0141155105B1F7E901FB83A3
:100B5000EA8349915991C40FD51FEC17FD0761F441
:100B6000808191810296840F951FE9019983888382
:100B7000828193819B838A83F0E0E0E012968D91DD
:100B80009C9113970097B9F52D913C911197CD0148
:100B90000296820F931F2091DA013091DB01281712
:100BA000390739F6309751F51092DD011092DC01CA
:100BB000B093DB01A093DA01BCCFD383C283408121
:100BC0005181840F951FC817D90761F44E5F5F4F9D
:100BD00088819981480F591F518340838A819B8165
:100BE000938382832115310509F0B0CFF093DD01A5
:100BF000E093DC019ECFFD01DC01C0CF13821282A5
:100C0000D7CFB0E0A0E0E7E0F6E00C94A1048C01BF
:100C1000009751F4CB010E94DC048C01C801CDB7D0
:100C2000DEB7E0E10C94BD04FC01E60FF71F9C0168
:100C300022503109E217F30708F49DC0D901CD9184
:100C4000DC911197C617D70798F0C530D10530F35E
:100C5000CE0104978617970708F3C61BD70B229778
:100C6000C193D1936D937C93CF010E947805D6CF29
:100C70005B01AC1ABD0A4C018C0E9D1EA091DC01DB
:100C8000B091DD01512C412CF12CE12C109731F564
:100C90008091DA019091DB018815990509F05CC01B
:100CA0004616570608F058C0809100019091010146
:100CB000009741F48DB79EB7409104015091050112
:100CC000841B950BE817F90708F055C0F093DB017A
:100CD000E093DA01F90171836083A0CF8D919C913B
:100CE000119712966C90129713967C901397A815F3
:100CF000B90559F56C0142E0C40ED11CCA14DB04DD
:100D000020F1AC014A195B09DA011296159780F0BF
:100D10006282738251834083D9016D937C93E11485
:100D2000F10471F0D7011396FC93EE93129776CFEE
:100D300022968C0F9D1FF90191838083F301EFCFE1
:100D4000F093DD01E093DC0169CF4816590608F401
:100D50002C017D01D3019ACFCB010E94DC047C01E0
:100D6000009749F0AE01B8010E94BE06C8010E947A
:100D70007805870153CF10E000E050CFFB01DC0184
:100D800002C001900D9241505040D8F70895FB01E8
:100D9000DC0101900D920020E1F70895F894FFCF57
:100DA0000000DE0180000000000018015F00A500C7
:100DB0006501D600B400C8000D0A006669656C6460
:0A0DC000496E6465783A20002300B4
:107E0000112484B714BE81FFF0D085E080938100F7
:107E100082E08093C00088E18093C10086E0809377
:107E2000C20080E18093C4008EE0C9D0259A86E02C
:107E300020E33CEF91E0309385002093840096BBD3
:107E4000B09BFECF1D9AA8958150A9F7CC24DD24C4
:107E500088248394B5E0AB2EA1E19A2EF3E0BF2EE7
:107E6000A2D0813461F49FD0082FAFD0023811F036
:107E7000013811F484E001C083E08DD089C08234E0
:107E800011F484E103C0853419F485E0A6D080C0E4
:107E9000853579F488D0E82EFF2485D0082F10E0AE
:107EA000102F00270E291F29000F111F8ED06801E7
:107EB0006FC0863521F484E090D080E0DECF843638
:107EC00009F040C070D06FD0082F6DD080E0C81688
:107ED00080E7D80618F4F601B7BEE895C0E0D1E017
:107EE00062D089930C17E1F7F0E0CF16F0E7DF06D8
:107EF00018F0F601B7BEE89568D007B600FCFDCFD4
:107F0000A601A0E0B1E02C9130E011968C91119780
:107F100090E0982F8827822B932B1296FA010C0160
:107F200087BEE89511244E5F5F4FF1E0A038BF0790
:107F300051F7F601A7BEE89507B600FCFDCF97BE46
:107F4000E89526C08437B1F42ED02DD0F82E2BD052
:107F50003CD0F601EF2C8F010F5F1F4F84911BD097
:107F6000EA94F801C1F70894C11CD11CFA94CF0C13
:107F7000D11C0EC0853739F428D08EE10CD085E9AC
:107F80000AD08FE07ACF813511F488E018D01DD067
:107F900080E101D065CF982F8091C00085FFFCCF94
:107FA0009093C60008958091C00087FFFCCF809118
:107FB000C00084FD01C0A8958091C6000895E0E648
:107FC000F0E098E1908380830895EDDF803219F02E
:107FD00088E0F5DFFFCF84E1DECF1F93182FE3DFCA
:107FE0001150E9F7F2DF1F91089580E0E8DFEE27F6
:047FF000FF270994CA
:027FFE00040479
:0400000300007E007B
:00000001FF
