:100000000C945D000C9485000C9485000C94850084
:100010000C9485000C9485000C9485000C9485004C
:100020000C9485000C9485000C9485000C9485003C
:100030000C9485000C9485000C9485000C9485002C
:100040000C9402140C9485000C94D0130C94AA13F5
:100050000C9485000C9485000C9485000C9485000C
:100060000C9485000C94850000000008000201003B
:100070000003040700000000000000000000000072
:10008000250028002B0000000000240027002A0083
:10009000040404040404040402020202020203032E
:1000A0000303030301020408102040800102040836
:1000B00010200102040810204C1411241FBECFEFA1
:1000C000D8E0DEBFCDBF12E0A0E0B1E0E8E5FDE2A0
:1000D00002C005900D92A633B107D9F723E0A6E33D
:1000E000B2E001C01D92A236B207E1F710E0CDE503
:1000F000D0E004C02197FE010E949D16CC35D107A7
:10010000C9F70E94FD140C94AA160C9400008CBD33
:100110009DBD089590E0FC01EC55FF4F2491805760
:100120009F4FFC018491882399F090E0880F991FDC
:10013000FC01EA57FF4FA591B491FC01E458FF4F31
:10014000859194918FB7F894EC91E22BEC938FBF4B
:100150000895FC01818D928D08950895AF92BF920C
:10016000CF92DF92EF92FF920F931F93CF93DF9383
:100170006C017B018B01040F151FEB015E01AE18B2
:10018000BF08C017D10759F06991D601ED91FC91D4
:100190000190F081E02DC6010995892B79F7C50101
:1001A000DF91CF911F910F91FF90EF90DF90CF9053
:1001B000BF90AF900895FC01538D448D252F30E002
:1001C000842F90E0821B930B541710F0CF96089564
:1001D00001970895FC01918D828D981761F0A28D91
:1001E000AE0FBF2FB11D5D968C91928D9F5F9F7357
:1001F000928F90E008958FEF9FEF0895FC01918D0D
:10020000828D981731F0828DE80FF11D858D90E079
:1002100008958FEF9FEF0895FC01918D228D892F16
:1002200090E0805C9F4F821B91098F7399270895FE
:100230008BE692E00E940C0121E0892B09F420E07A
:10024000822F089580E090E0892B29F00E94180108
:1002500081110C9400000895FC01A48DA80FB92F02
:10026000B11DA35ABF4F2C91848D90E001968F73DE
:100270009927848FA689B7892C93A089B1898C91FD
:10028000837080648C93938D848D981306C002884C
:10029000F389E02D80818F7D80830895EF92FF9216
:1002A0000F931F93CF93DF93EC0181E0888F9B8D99
:1002B0008C8D98131AC0E889F989808185FF15C053
:1002C0009FB7F894EE89FF896083E889F989808176
:1002D0008370806480839FBF81E090E0DF91CF9145
:1002E0001F910F91FF90EF900895F62E0B8D10E067
:1002F0000F5F1F4F0F731127E02E8C8D8E110CC0D6
:100300000FB607FCFACFE889F989808185FFF5CF20
:10031000CE010E942C01F1CFEB8DEC0FFD2FF11DD2
:10032000E35AFF4FF0829FB7F8940B8FEA89FB895D
:1003300080818062CFCFCF93DF93EC01888D8823BB
:10034000B9F0AA89BB89E889F9898C9185FD03C038
:10035000808186FD0DC00FB607FCF7CF8C9185FF1D
:10036000F2CF808185FFEDCFCE010E942C01E9CF35
:10037000DF91CF9108953FB7F8948091400290911A
:100380004102A0914202B091430226B5A89B05C04C
:100390002F3F19F00196A11DB11D3FBFBA2FA92F04
:1003A000982F8827BC01CD01620F711D811D911D01
:1003B00042E0660F771F881F991F4A95D1F708956D
:1003C0008F929F92AF92BF92CF92DF92EF92FF9265
:1003D0004B015C010E94BB016B017C010E94BB01CF
:1003E0006C197D098E099F09683E7340810591054E
:1003F000A8F321E0821A9108A108B10888EEC80E7E
:1004000083E0D81EE11CF11C81149104A104B10405
:1004100029F7FF90EF90DF90CF90BF90AF909F9023
:100420008F9008952FB7F89460913C0270913D022F
:1004300080913E0290913F022FBF0895FC012081E0
:100440002EBD9B012150310941F051810DB407FEB1
:10045000FDCF4EB55EBD4193F5CF61507109860F5A
:10046000971F0DB407FEFDCF2EB5FC012083089524
:10047000E0913702F0913802808190913602892B09
:1004800080830895E0913702F09138029081809145
:10049000360280958923808308958EBD00000DB4B7
:1004A00007FEFDCF8EB50895AF92BF92CF92DF9237
:1004B000EF92FF920F931F93CF93DF93CDB7DEB7E9
:1004C00028970FB6F894DEBF0FBECDBF8C017B011D
:1004D0006A01809169028333E1F45801A40EB51ECC
:1004E000A016B10609F46FC00E94420280EF0E947C
:1004F0004D02812F0E944D02802F0E944D020F5FFE
:100500001F4FF70181917F010E944D020E94380226
:10051000E7CF5B01A40EB51E8433C1F40E944202F2
:1005200019830A838D2D80688B83CC8264E070E010
:10053000CE0101960E941E02AE14BF0409F441C010
:10054000F70181917F010E944D02F6CF0E94420285
:100550000F3F110509F028F419820A8384E08B8388
:100560000CC017FD17C019820A8333E01695079552
:100570003A95E1F7007E0C600B8386E0C816D10443
:10058000A0F5F701DE011496EA15FB0599F08191BB
:100590008D93FACFC80126E0969587952A95E1F7C5
:1005A000807E19830A830115104C10F48461D7CF23
:1005B0008C61D5CFB6016D5F7F4FCE0101960E9451
:1005C0001E020E943802C60128960FB6F894DEBFBC
:1005D0000FBECDBFDF91CF911F910F91FF90EF9094
:1005E000DF90CF90BF90AF90089563E070E0CE01B0
:1005F00001960E941E02F70181917F010E944D0227
:10060000AE14BF04C1F7DDCFCF93DF931F92CDB7F8
:10061000DEB7898341E050E0BE016F5F7F4F90E01D
:1006200080E00E9454020F90DF91CF91089590E0F6
:1006300020916902233339F40C96982F990F990F62
:10064000990F80E008954896F8CFDA01E0913A02D8
:10065000F0E0FE2FEE27E60FF71F90E0982F882797
:10066000A901BD018E0F9F1F0C945402CF93DF93FD
:1006700000D0CDB7DEB779836A8322E030E0AE01E7
:100680004F5F5F4F60E170E00E9425030F900F9075
:10069000DF91CF910895CF93DF9300D0CDB7DEB730
:1006A00079836A8322E030E0AE014F5F5F4F64E000
:1006B00070E00E9425030F900F90DF91CF91089575
:1006C000CF93DF931F92CDB7DEB720913A0230E08F
:1006D000322F2227260F371F90E0982F8827498333
:1006E00041E050E0BE016F5F7F4F820F931F0E9479
:1006F00054020F90DF91CF910895CF93DF931F9213
:10070000CDB7DEB76983DC01ED91FC910280F38106
:10071000E02D41E050E0BE016F5F7F4F09950F90E3
:10072000DF91CF910895CF93DF931F92CDB7DEB7BE
:100730006983DC01ED91FC910280F381E02D41E0C1
:1007400050E0BE016F5F7F4F09950F90DF91CF9111
:100750000895FC019485FB018485981303C081E012
:10076000943008F080E00895CF93DF931F92CDB7C7
:10077000DEB76983DC01ED91FC910280F381E02D0D
:1007800041E050E0BE016F5F7F4F09950F90DF9110
:10079000CF910895FC01768765870895DC01ED917E
:1007A000FC91068CF78DE02D099591E0892708953D
:1007B000862F089581E08627089521E0FC01848535
:1007C000843008F020E0822F08950895FF920F935F
:1007D0001F93CF93DF93EB01FC01178A168A2A81BE
:1007E000211109C02B81211106C02C81211103C0C8
:1007F0002D81222301F141155105E9F08A01FC0107
:10080000F08C80E591E00E948700AE014E5F5F4F63
:1008100024E030E06CE070E08F2D0E942503B801E9
:100820008F2D0E94360381E090E0DF91CF911F91E0
:100830000F91FF90089580E0F7CFFC0184859585A6
:100840000895FC0184899589089521E831E0FC012F
:1008500031832083FB014089518962897389FC01BE
:1008600042835383648375830895DC01ED91FC9189
:10087000048CF58DE02D0994089590E080E00895B2
:10088000FB0101900020E9F73197AF01461B570BA0
:10089000DC01ED91FC910280F381E02D09948F92AF
:1008A0009F92AF92BF92EF92FF920F931F93CF93BD
:1008B000DF93CDB7DEB7A1970FB6F894DEBF0FBEBA
:1008C000CDBF7C01FA01CB0119A2223008F42AE045
:1008D0008E010F5D1F4F822E912CB12CA12CBF01D8
:1008E000A50194010E947B16F901CA016A300CF53A
:1008F000605DD8016E938D01232B242B252B79F776
:1009000090E080E0109721F0BD01C7010E944004F3
:10091000A1960FB6F894DEBF0FBECDBFDF91CF9189
:100920001F910F91FF90EF90BF90AF909F908F908D
:100930000895695CDECF0F931F93CF93DF93EC0193
:100940000E9440048C0163E971E0CE010E944004E2
:10095000800F911FDF91CF911F910F9108958F927A
:100960009F92AF92BF92CF92DF92EF92FF920F933E
:100970001F93CF93DF937C01EB016C0182E0C80EE3
:10098000D11C4701E5E08E0E911C10E000E0F6015D
:1009900041916F0150E070E060E02AE0CE010E94DA
:1009A0004F045C01E881F9810190F081E02D6EE255
:1009B000CE0109958A0D9B1D080F191FC814D90473
:1009C00031F7F701458150E070E060E02AE0CE01A8
:1009D0000E944F04800F911FDF91CF911F910F91C3
:1009E000FF90EF90DF90CF90BF90AF909F908F904F
:1009F0000895AF92BF92CF92DF92EF92FF920F9342
:100A00001F93CF93DF9300D000D0CDB7DEB78C011A
:100A10006B017A01809169028333E9F45B0168011B
:100A2000C40ED51EC016D106A9F10E9442028FE065
:100A30000E944D02812F0E944D02802F0E944D0284
:100A40000F5F1F4F80E00E944D02F50181935F010F
:100A50000E943802E7CF843369F50E94420219836D
:100A60000A838F2D8F778B83EC8264E070E0CE0158
:100A700001960E941E02A70170E060E0C6010E947C
:100A8000A316E114F10421F0B701C6010E941E0271
:100A90000E943802C7010F900F900F900F90DF91C6
:100AA000CF911F910F91FF90EF90DF90CF90BF906B
:100AB000AF9008950E9442020F3F110509F030F4F3
:100AC00019820A831B8263E070E0D1CF17FD0BC04F
:100AD00019820A8333E0169507953A95E1F7007E6F
:100AE00008600B83F0CFC80126E0969587952A957C
:100AF000E1F7807E19830A830115104C18F4806198
:100B00008B83E1CF8861FCCF1F93CF93DF931F923C
:100B1000CDB7DEB7182F80E591E00E948700812FC6
:100B20000E94170327E0129FF0011124EB5BFD4F99
:100B300022813381377041E050E0BE016F5F7F4F0B
:100B4000820F931F0E94F90489810F90DF91CF914A
:100B50001F910895FC01808D843040F4218D328DE9
:100B6000232B21F00E94840590E008958FEF9FEFE2
:100B70000895CF93DF93FC012485243028F08FEF74
:100B80009FEFDF91CF910895EC010190F081E02D6E
:100B90000084F185E02D0995892B89F38C850E94CD
:100BA000840590E0EECFCF93DF931F92CDB7DEB7F1
:100BB00041E050E0BE016F5F7F4F0E94F9048981E0
:100BC0000F90DF91CF91089590E080E00C94D305D1
:100BD000CF93DF93C4E1D0E00E94E405882361F065
:100BE00061E070E080E090E00E94E0012197A1F7D1
:100BF00080E0DF91CF91089581E0FBCFDF92EF920B
:100C0000FF920F931F93CF93DF9300D0CDB7DEB742
:100C100060E372E080E090E00E94E001DFB6F894CB
:100C20000AE910E04EEAE42E40E0F42E8091390209
:100C3000811142C0F8018491F7019491E82FF0E00E
:100C4000EE0FFF1FEA57FF4FA591B4918C919823A7
:100C500021F5E2E7F0E08491F7019491F801249105
:100C60002223D9F0882359F0833009F4A0C008F07A
:100C700093C0813009F4A1C0823009F4A2C0E22FF0
:100C8000F0E0EE0FFF1FE458FF4FA591B4918FB72E
:100C9000F8942C91922B9C938FBF8AE00E948A003B
:100CA0008CB580618CBD8CB580648CBD8DE00E945C
:100CB0008A008BE00E948A00809139028F5F8093C6
:100CC0003902DFBEF8010491E02FF0E0EE0FFF1FC4
:100CD000E458FF4F859194919093380280933702A6
:100CE000F701E490E09236028AE00E948A000E94B6
:100CF000380280E591E00E94870084E380936902D6
:100D000080E80E9404030E94E805882309F466C075
:100D100088E00E9404030E94E405883009F05EC068
:100D200080E10E9404030E94E405803109F056C06E
:100D300080E00E9404030E94E405182F81114EC038
:100D40008FE190E00E94D305833009F047C080E432
:100D500080933A0242E06EE170E0812F0E946003CE
:100D600042E06FE170E0812F0E9460031F5F14304A
:100D700089F740E06EE170E0812F0E94600340E05F
:100D80006FE170E0812F0E9460031F5F183089F7C8
:100D900081E080936A0286C08730B1F08830D1F05C
:100DA000843009F06CCF809180008F7D03C08091EA
:100DB00080008F778093800062CF84B58F7784BD69
:100DC0005ECF84B58F7DFBCF8091B0008F7780930D
:100DD000B00055CF8091B0008F7DF9CF87E380932D
:100DE000690280E80E9404030E94E8058823F9F064
:100DF00088E00E9404030E94E4058830C1F480E189
:100E00000E9404030E94E405182F803181F480E0E1
:100E10000E9404030E94E405811109C089E390E067
:100E20000E94D305843019F410933A02B1CF83E3C2
:100E30008093690280E80E9404030E94E8058823E9
:100E400071F180E10E9404030E94E405803139F5CC
:100E500082E10E9404030E94E405823101F580E0F2
:100E60000E9404030E94E405811119C084E080936C
:100E70003A0215E51A8341E050E0BE016E5F7F4FF4
:100E80008BE190E00E945402198341E050E0BE01E2
:100E90006F5F7F4F8AE190E00E94540279CF1092F9
:100EA000690280E00F900F90DF91CF911F910F9119
:100EB000FF90EF90DF900895CF92DF92EF92FF9234
:100EC0000F931F93CF93DF93EC016B018A0179019C
:100ED00080916A028823E9F180E591E00E94870011
:100EE00046E050E062E071E089E090E00E94540248
:100EF000BE016E5F7F4F44E050E08FE090E00E94C3
:100F00005402B8016E5F7F4F44E050E081E090E012
:100F10000E945402B7016E5F7F4F44E050E085E0CD
:100F200090E00E945402F60182819381A481B581F0
:100F30008093280390932903A0932A03B0932B0353
:100F4000DF91CF911F910F91FF90EF90DF90CF90A5
:100F500008950E94FE05882399F3BECF20913A029E
:100F600030E0322F2227620F731F90E0982F8827DE
:100F7000860F971F0C94D305CF93C82F462F61E09F
:100F800070E00E94600361E070E08C2F0E94AE0769
:100F90008111F9CFCF910895CF93C82F80E591E0CB
:100FA0000E94870068E070E08C2FCF910C94BC0702
:100FB000CF93C82F80E591E00E94870060E170E048
:100FC0008C2FCF910C94BC07CF93DF93EC01888DCD
:100FD000843020F40E94D80784E0888FDF91CF917D
:100FE000089563E070E00C94AE07CF93C82F80E5BE
:100FF00091E00E9487008C2FCF910C94F107EF9223
:10100000FF920F931F93CF937C0101E612E0C0E0A3
:10101000F801219131918F01F70184819581281781
:10102000390729F0CF5FC43099F780E006C08C2FD4
:101030000E94F5078431B1F781E0CF911F910F91A4
:10104000FF90EF900895CF93DF93EC018C8584306F
:10105000D0F40E94F507843189F0882379F0883133
:1010600069F021E08C3159F4E881F9810084F1853F
:10107000E02DCE01099521E0892B09F420E0822F93
:10108000DF91CF91089580E0FBCFCF92DF92EF9276
:10109000FF92CF93DF93EC018C85843068F40E943B
:1010A000CC070E9412026B017C018C850E94F5071F
:1010B000811109C084E08C87DF91CF91FF90EF9080
:1010C000DF90CF90089561E070E080E090E00E94B2
:1010D000E0010E941202AB01BC014C195D096E09CE
:1010E0007F098D859E85B0E0A0E0481759076A0703
:1010F0007B07D8F28C850E94D807DCCFCF93FC0108
:10110000C08D80E591E00E94870060E270E08C2F46
:101110000E94BC0762E070E08C2F0E94AE0784FD45
:1011200016C062E070E08C2F0E94AE0783FF0AC0F9
:1011300048E162E070E08C2F0E94600380E090E064
:10114000CF91089580E591E00E948700E3CF40E1D0
:1011500062E070E08C2F0E94600381E0F0CFDA0142
:10116000E0913A02F0E0FE2FEE27E60FF71F90E045
:10117000982F8827A901BD018E0F9F1F0C94F90499
:101180008F929F92AF92BF92CF92DF92EF92FF9297
:101190001F93CF93DF93CDB7DEB72C970FB6F8949C
:1011A000DEBF0FBECDBF2091690214E0222329F1DA
:1011B0006B017C0180E591E00E9487005E0127E0E1
:1011C000A20EB11C450110E0812F0E94F107F4012D
:1011D00081934F01882349F11F5F1430A9F710E074
:1011E000F50181915F018D31D9F08831C9F08A51C3
:1011F0008230B0F01F5F143099F7812F2C960FB614
:10120000F894DEBF0FBECDBFDF91CF911F91FF904D
:10121000EF90DF90CF90BF90AF909F908F90089508
:1012200060E170E0812F0E94BC07A12EB12CF50176
:10123000EE0FFF1FEF59FD4F1182108283EE93E0F6
:101240000197F1F742E870E060E0812F0E946003AF
:101250004FEF62E070E0812F0E946003B601C1147D
:10126000D10491F4809100019091010101968115C2
:10127000F0EC9F0708F45CC090930101809300019B
:101280006091000170910101812F0E944B0386E063
:10129000E8E0F1E0DE01119601900D928A95E1F708
:1012A000F70183818F778C8384818D8385818E8301
:1012B000A7014E5F5F4F24E030E06CE070E0812FCB
:1012C0000E942503B601812F0E94360326E030E0FC
:1012D000AE014F5F5F4F66E070E0812F0E942503F3
:1012E00061E070E0812F0E94BC0727E02A9DC001C9
:1012F0002B9D900D11249C012B5B3D4F7901F90131
:101300001182108222E030E0AE01455F5F4F68E25B
:1013100070E0812F0E94AF088B859C8598278927D4
:101320009827F7019383828316821582148265CFF2
:1013300080E090ECA1CFCF92DF92EF92FF920F93DB
:101340001F93CF93DF9300D000D000D0CDB7DEB78E
:101350008C016B017A01FC01808D843010F40E94B5
:10136000D80781E891E09A838983F601828193818D
:10137000A481B5818B839C83AD83BE83B701CE01ED
:1013800001960E94C008F801808F8430A0F4F58691
:10139000E486128E118E81E026960FB6F894DEBF99
:1013A0000FBECDBFDF91CF911F910F91FF90EF90B6
:1013B000DF90CF90089580E0EFCFAF92BF92CF92B1
:1013C000DF92EF92FF920F931F93CF93DF9300D0A2
:1013D00000D000D0CDB7DEB7082F6B0180E591E0DB
:1013E0000E9487009E012F5F3F4F7901590110E055
:1013F000812F0E94F107F50181935F01882341F15C
:101400001F5F1430A9F710E0F70181917F018D3142
:10141000D1F08831C1F08A518230A8F01F5F1430BA
:1014200099F7812F26960FB6F894DEBF0FBECDBF79
:10143000DF91CF911F910F91FF90EF90DF90CF90B0
:10144000BF90AF90089560E170E0812F0E94BC07CB
:10145000E12EF12CF701EE0FFF1FEF59FD4F118226
:10146000108283EE93E00197F1F7402F70E060E087
:10147000812F0E9460034FEF62E070E0812F0E9495
:101480006003B601CD2889F480910001909101019B
:1014900001968115F0EC9F0798F1909301018093DC
:1014A00000016091000170910101812F0E944B03A6
:1014B00061E070E0812F0E94BC0727E02E9DC001F3
:1014C0002F9D900D11249C012B5B3D4F7901F9015B
:1014D0001182108222E030E0AE014B5F5F4F68E284
:1014E00070E0812F0E94AF088D819E819827892707
:1014F0009827F7019383828316821582148291CFF5
:1015000080E090ECCACFCF92DF92EF92FF921F93D0
:10151000CF93DF93EC017B016A018C85843048F422
:101520000E94F507882319F08C850E94CC0784E07F
:101530008C87F70182819381A481B5810097A105F1
:10154000B10551F490E080E0DF91CF911F91FF90C1
:10155000EF90DF90CF9008958F3F9F4FAF4FBF4FD9
:1015600089F380916902811103C084E08C87EACFFE
:1015700070E060E081E20E94DD09182F8C878430E2
:1015800008F780E591E00E948700A7014E5F5F4F5A
:1015900024E030E06CE070E0812F0E942503B6016A
:1015A000812F0E94360364E070E0812F0E94BC0707
:1015B0000E9412026B017C018C850E94F507873125
:1015C00009F18C31F9F0882309F4BCCF0E94120292
:1015D000AB01BC014C195D096E097F098D859E85A3
:1015E000B0E0A0E084179507A607B70738F061E0E0
:1015F00070E080E090E00E94E001DECF8C850E94E8
:10160000D807B3CF81E090E09FCF0F931F93CF9384
:10161000DF93EC018B01888D843010F40E94D80791
:1016200080916902811107C094E0988FDF91CF917A
:101630001F910F910895B80182E00E94DD09888F03
:10164000843030F41D870C871A8E198E81E0EECF1E
:1016500080E0ECCF0F931F93CF9320916902222358
:1016600049F18C01FC016481758181E20E94DD09F0
:10167000C82F8430F8F480E591E00E9487008C2F19
:101680000E94F107833131F08C2FCF911F910F9180
:101690000C94CC0762E070E08C2F0E94BC07F8012C
:1016A00084819581EC2FF0E0EE0FFF1FEF59FD4F85
:1016B00091838083CF911F910F9108957F928F9294
:1016C0009F92AF92BF92CF92DF92EF92FF920F93D1
:1016D0001F93CF93DF9300D0CDB7DEB7782E8B0169
:1016E0004A01590122E030E0AE014F5F5F4F64E2F2
:1016F00070E00E94AF08E980FA80FE24EF24FE2407
:10170000E00EF11E9701377040916902072D10E03D
:10171000433309F042C0085F1F4F102F0027110FFD
:10172000110F110FC901800F911F4733C9F1A90192
:101730004A0D5B1D4130584098F160E078E06B0144
:10174000C21AD30AA601B4010E945402A5014C1981
:101750005D09B4016C0D7D1DC8010E945402EA0CA4
:10176000FB1CF982EA8222E030E0AE014F5F5F4F5E
:1017700064E270E0872D0E9425030F900F90DF91A7
:10178000CF911F910F91FF90EF90DF90CF90BF907E
:10179000AF909F908F907F900895005F1F4FBDCFB7
:1017A000A501B401DACFEF92FF921F93CF93DF939D
:1017B00000D0CDB7DEB7182F22E030E0AE014F5F8A
:1017C0005F4F60E270E00E94AF08E980FA80FE247B
:1017D000EF24FE2422E030E0AE014F5F5F4F60E275
:1017E00070E0812F0E94AF0889819A81982789270C
:1017F0009827E816F90689F487E0189FF00111246C
:10180000EB5BFD4FF582E482C7010F900F90DF91F3
:10181000CF911F91FF90EF9008957C01DBCF1F9334
:10182000CF93DF93182F80E591E00E948700812FEE
:101830000E94D30BEC01812F0E94F107873121F028
:101840008C3111F0D0E0C0E0CE01DF91CF911F913B
:101850000895CF93DF93EC018C85843060F40E946F
:10186000F507873111F08C3131F48C850E940F0C13
:101870008115984088F3DF91CF910895FC0184850C
:10188000843010F40C940F0C90E080E00895CF9217
:10189000DF92EF92FF921F93CF93DF93182F7B017C
:1018A000EA014130584010F0C0E0D8E080E591E016
:1018B0000E948700812F0E94D30B6C01812F0E9410
:1018C000F107873111F08C3121F5CC16DD0670F36C
:1018D00080E591E00E9487009E01A70170E060E032
:1018E000812F0E945E0B60E270E0812F0E94BC0796
:1018F00062E070E0812F0E94AE0784FD0DC0812F51
:101900000E94F1078823B9F080E591E00E948700EA
:10191000EFCFD0E0C0E0DCCF40E162E070E0812FAB
:101920000E946003CE01DF91CF911F91FF90EF9055
:10193000DF90CF900895D0E0C0E0F4CF0F931F93D5
:10194000CF93DF938C01EA01FC018485843048F455
:101950000E94470C892B39F481E090E0F8019383D1
:101960008283D0E0C0E0CE01DF91CF911F910F9133
:1019700008959F92AF92BF92CF92DF92EF92FF9223
:101980000F931F93CF93DF938C015B01942EE52E71
:10199000FC01C688D788F08C80E591E00E94870022
:1019A0008F2D0E94D30BC92DDE2D8C179D0708F4B7
:1019B000EC019E01A501B6018F2D0E945E0BF8017E
:1019C000868997898C0F9D1F978B868BCE01DF911F
:1019D000CF911F910F91FF90EF90DF90CF90BF902C
:1019E000AF909F900895FF920F931F93CF93DF9333
:1019F00000D0CDB7DEB7F82E22E030E0AE014F5F69
:101A00005F4F66E270E00E94AF0809811A811027DB
:101A10000127102722E030E0AE014F5F5F4F66E202
:101A200070E08F2D0E94AF0889819A8198278927BD
:101A300098270817190749F4C8010F900F90DF91F4
:101A4000CF911F910F91FF9008958C01E3CF1F93C9
:101A5000CF93DF93182F87E0189FE0011124CB5B11
:101A6000DD4F88819981009761F480E591E00E94C3
:101A70008700812F0E94F30C2E81821B910999838C
:101A80008883DF91CF911F910895AF92BF92CF923B
:101A9000DF92EF92FF920F931F93CF93DF93EC01AE
:101AA0007B0180916902811120C01B821A8288EE1D
:101AB00093E0A0E0B0E08C839D83AE83BF8382E19E
:101AC00091E09983888384E08C8788EE93E09E87F9
:101AD0008D87CE01DF91CF911F910F91FF90EF90F5
:101AE000DF90CF90BF90AF90089581E6C82E82E03E
:101AF000D82E10E094E0B92EA12CD6012D913D9165
:101B00006D01F701848195812817390791F4812FA0
:101B10000E94F507082F873111F08C3139F5812F9C
:101B20000E94270D892B59F50C3119F4812F0E9441
:101B3000CC071F5F143009F7A11008C0D701ED9141
:101B4000FC910084F185E02DC70109951B821A8262
:101B500088EE93E0A0E0B0E08C839D83AE83BF83EA
:101B600082E191E099838883BC86AFCF843149F0CC
:101B70008111DFCFF601329711821082DACFB12EB8
:101B8000D8CFAA24A394D5CF8F929F92AF92BF9221
:101B9000CF92DF92EF92FF921F93CF93DF93CDB757
:101BA000DEB72F970FB6F894DEBF0FBECDBF5C0136
:101BB0004B017A01809169028823A1F1B501CE0120
:101BC00001960E94450D81E6C82E82E0D82E10E0D5
:101BD000F601219131916F01F501848195812817DA
:101BE000390751F4812F0E94F507873129F4A701A5
:101BF000B401812F0E94470C1F5F143049F7C701C1
:101C00002F960FB6F894DEBF0FBECDBFDF91CF91F8
:101C10001F91FF90EF90DF90CF90BF90AF909F907B
:101C20008F900895F12CE12CEACFFC01848584305B
:101C300010F40C94270D90E080E008954F925F928D
:101C40007F928F929F92AF92BF92CF92DF92EF924C
:101C5000FF920F931F93CF93DF9300D0CDB7DEB7E2
:101C6000782E6B014A01A82EB12C27E0829FC0017B
:101C70001124FC01EB5BFD4F7F010081118180E5A8
:101C800091E00E9487000815190554F4872D0E94E1
:101C9000F30CF70126818C01021B110911830083CB
:101CA0000115110519F5872D0E94F107843159F0AE
:101CB000882349F001E010E08C3111F410E000E0DD
:101CC000119501951109C8010F900F90DF91CF91E7
:101CD0001F910F91FF90EF90DF90CF90BF90AF904A
:101CE0009F908F907F905F904F90089580169106FF
:101CF0000CF4840187E08A9DF0018B9DF00D112486
:101D0000EB5BFD4FE280F380C114D10451F1270158
:101D1000F7E05F22872D0E941703840D951D209107
:101D20006902273309F453C09801240D351D213071
:101D3000384008F44CC020E038E049018418950888
:101D4000A401B6010E94F9042601480C591C68013F
:101D5000C818D908872D0E941703A601B2010E9456
:101D6000F904E00EF11E87E08A9DF0018B9DF00DD5
:101D70001124EB5BFD4FF382E28220813181201B35
:101D8000310B318320838681800F912F911D8A3FF3
:101D9000910510F4232BF1F487E08A9DF0018B9DCF
:101DA000F00D1124EB5BFD4F1682F982EA8222E0EE
:101DB00030E0AE014F5F5F4F68E270E0872D0E9418
:101DC000250360E470E0872D0E94BC077CCFA8014A
:101DD000B601C5CF868377CFCF93DF93FC01218DEA
:101DE000328D2115310529F48FEF9FEFDF91CF91CF
:101DF0000895EC01808D4217530708F0A9010E9455
:101E00001E0E1816190684F7298D3A8D281B390BDA
:101E10003A8F298FEBCF0F931F93CF93DF931F92AE
:101E2000CDB7DEB7FC01218D328D232B41F48FEF2E
:101E30009FEF0F90DF91CF911F910F9108958C012B
:101E400041E050E0BE016F5F7F4FFC01808D0E943A
:101E50001E0E181619065CF7F801818D928D0197F8
:101E6000928F818F898190E0E4CFCF93DF931F928F
:101E7000CDB7DEB741E050E0BE016F5F7F4FFC01A0
:101E800084850E941E0E1816190634F4898190E08C
:101E90000F90DF91CF9108958FEF9FEFF9CFFC0165
:101EA0008485843010F40C941E0E90E080E0089538
:101EB0000F931F93CF93DF9300D0CDB7DEB7FC0114
:101EC00024852430E0F48C0180E591E00E948700B5
:101ED00022E030E0AE014F5F5F4F60E170E0F8015B
:101EE00084850E94AF0889819A819827892798273D
:101EF0000F900F90DF91CF911F910F91089590E077
:101F000080E0F6CF0F931F93CF93DF9300D0CDB730
:101F1000DEB7FC0124852430E0F48C0180E591E0FB
:101F20000E94870022E030E0AE014F5F5F4F64E027
:101F300070E0F80184850E94AF0889819A81982712
:101F4000892798270F900F90DF91CF911F910F91C4
:101F5000089590E080E0F6CF0F931F93CF93DF9327
:101F6000CDB7DEB728970FB6F894DEBF0FBECDBF52
:101F70008C01D80159964D915C915A9741155105A4
:101F800051F0ED91FC91048CF58DE02D70E060E056
:101F9000C8010995EECFF801808D0E94270D892B8D
:101FA000B1F148E050E0BE016F5F7F4FD801589615
:101FB0008C910E941E0E18161906F4F4D801509642
:101FC00084E0FE01319601900D928A95E1F78D81B2
:101FD00090E0982F88272E81820F911DF801958B14
:101FE000848B8F81282F30E0322F22278885820F23
:101FF000932F911D928F818F28960FB6F894DEBF94
:102000000FBECDBFDF91CF911F910F91089590E04A
:1020100080E0F2CF4F925F926F927F928F929F9269
:10202000AF92BF92CF92DF92EF92FF920F931F93E6
:10203000CF93DF93CDB7DEB763970FB6F894DEBFCB
:102040000FBECDBF7C016B013A01FB0120E090E0A7
:1020500080E06AE03191332309F461C040ED430F21
:102060004A3008F04DC0689FA001699F500D1124AF
:10207000CA01C097830F911D37FD9A958F3F910537
:1020800049F340F3F7014281538164817581809166
:10209000340390913503A0913603B091370348176C
:1020A00059076A077B0709F40DC28701085F1F4FB4
:1020B0000E9412026F7077277C5FC8010E94050B97
:1020C000813009F004C281E891E09A838983F701A5
:1020D00082819381A481B5818B839C83AD83BE83F0
:1020E00045E350E0BE016F5F7F4FC8010E94E603E9
:1020F000892BA9F5D12CC12CC8010E94E40717C077
:102100003E3209F0BFCF233009F4BCCFD301A20F78
:10211000B11D12968C932F5F90E080E09BCF23300F
:1021200009F0B0CFF3018583CC24C394D12CC60130
:1021300063960FB6F894DEBF0FBECDBFDF91CF918F
:102140001F910F91FF90EF90DF90CF90BF90AF90D5
:102150009F908F907F906F905F904F9008950E9416
:102160001202F7017783668342E050E0B7016A5FAD
:102170007F4FC8010E94B90C81E090E09A83898367
:1021800042E050E0BE016F5F7F4FC8010E94B90C72
:1021900080E091E09A83898342E050E0BE016F5F66
:1021A0007F4FC8010E94B90C1A82198242E050E0A8
:1021B000BE016F5F7F4FC8010E94B90C42E050E042
:1021C000BE016F5F7F4FC8010E94B90C42E050E032
:1021D000BE016F5F7F4FC8010E94B90C5601F60126
:1021E0008081882301F16501F60181912F01882307
:1021F00011F08E32B1F446018A189B0818141904A4
:1022000074F48D8641E050E0BE01635F7F4FC801EA
:102210000E94B90CA401B501C8010E94B90C520179
:10222000DECF6201E1CF1D8641E050E0BE01635F79
:102230007F4FC8010E94B90CC12CDD24D394DA82EF
:10224000C98242E050E0BE016F5F7F4FC8010E942B
:10225000B90CDA82C98242E050E0BE016F5F7F4F65
:10226000C8010E94B90CC8010E947E08892B09F49C
:1022700041CFF3E0AF2EB12C230122E0420E511CDE
:10228000D4C0F7014281538164817581808D918D25
:10229000A28DB38D481759076A077B0709F008C15B
:1022A000848D958DC59709F003C181A192A15DEF41
:1022B000C52EDD24DA940C970CF4ADC04CE050E050
:1022C000BE016F5F7F4FC8010E94EC0E8B819C8125
:1022D0009827892798279A8B898BF7014681578100
:1022E00029813A814217530709F0E7C097FFE5C0FB
:1022F0008F7092703BEFC32EDD24DA94892B09F0A6
:102300008AC06F8078847624672476242AEFC22ED0
:10231000DD24DA946114710409F47DC0D12CC12C40
:102320008D819E81982789279827C816D906F8F4A9
:1023300041E050E0BE01635F7F4FC8010E94EC0E98
:102340004D85442331F050E070E060E0C8010E9408
:10235000EC0E8D858111ECCF44E050E070E060E040
:10236000C8010E94EC0EFFEFCF1ADF0AD9CF912CE3
:10237000812C41E050E0BE016D5E7F4FC8010E949C
:10238000EC0E4B89842F807C09F06CC0442331F023
:1023900050E070E060E0C8010E94EC0E8B89811172
:1023A000E8CF42E050E0BE01615F7F4FC8010E946C
:1023B000EC0E42E050E0BE01635F7F4FC8010E9417
:1023C000EC0E44E050E070E060E0C8010E94EC0ECA
:1023D00042E050E0BE016F5E7F4FC8010E94EC0EEC
:1023E0008F85988949895A898115914009F043C0A0
:1023F000CD84DE84DC24CD24DC2481E0C816D10425
:10240000D1F54115544009F04AC044E050E0B20112
:10241000C8010E94EC0E21E0A21AB10809F46CCEAA
:10242000FFEFCF16DF0609F067CE0E9412023B01D4
:102430004C01C8010E94AC0F181619060CF421CFEC
:102440000E9412026619770988099909693873414F
:102450008105910548F562E370E080E090E00E941C
:10246000E001E7CF41E050E070E060E0C8010E9489
:10247000EC0E1B8A93CF54274527542770E060E069
:10248000C8010E94EC0EFFEF8F1A9F0A68147904AE
:1024900009F06FCF96EFC92EDD24DA94BCCFE7EFB9
:1024A000CE2EDD24DA94B7CFCC24CA94DC2CB3CF63
:1024B0006EEFC62EDD24DA94AECF4CEFC42EDD24B1
:1024C000DA94A9CF8EEFC82EDD24DA9430CED12C49
:1024D000C12C2DCECF92DF92EF92FF920F931F93DC
:1024E000CF93DF93CDB7DEB7AF970FB6F894DEBFCB
:1024F0000FBECDBF7C016A0101E811E01A83098398
:102500001C861B8688EE93E0A0E0B0E08D879E8756
:10251000AF87B88B80E491E09A878987188F0F8BFB
:10252000198E1A8E1B8E1C8E84E089A31BA70AA706
:102530001CA61DA61EA61FA6809128039091290304
:10254000A0912A03B0912B038EA39FA3A8A7B9A79C
:102550008B839C83AD83BE8318861F82AE01465D4C
:102560005F4FCE0101960E940A1081309105B1F4AF
:10257000D701ED91FC910488F589E02D1DA30CA3F2
:102580008CA59DA5AEA5BFA58EA39FA3A8A7B9A7FF
:10259000A601BE016C5D7F4FC7010995AF960FB6CE
:1025A000F894DEBF0FBECDBFDF91CF911F910F9189
:1025B000FF90EF90DF90CF900895CF92DF92EF924F
:1025C000FF920F931F93CF93DF93CDB7DEB7AF97F3
:1025D0000FB6F894DEBF0FBECDBF8C016B017A0140
:1025E00081E891E09A8389831B821C821D821E826E
:1025F0001C861B8648EE53E060E070E04D875E87E6
:102600006F87788B20E431E03A872987988F8F8B0A
:10261000198E1A8E1B8E1C8E24E029A39BA78AA7D5
:102620001CA61DA61EA61FA6D8011C968C91843040
:1026300060F40E94F507882321F0F80184850E9448
:10264000CC0784E0D8011C968C938091280390914C
:102650002903A0912A03B0912B038EA39FA3A8A7BF
:10266000B9A78B839C83AD83BE8318861F82AE017E
:10267000465D5F4FB601CE0101960E940A10009799
:10268000C1F0D801ED91FC910684F785E02D81E839
:1026900091E09DA38CA38CA59DA5AEA5BFA58EA3FF
:1026A0009FA3A8A7B9A7A701BE016C5D7F4FC80172
:1026B0000995AF960FB6F894DEBF0FBECDBFDF9180
:1026C000CF911F910F91FF90EF90DF90CF900895E1
:1026D000EF92FF920F931F93CF93DF9300D000D020
:1026E000CDB7DEB78C017B01FB0184858430A8F077
:1026F00081E891E0F8019183808312821382148231
:102700001582C8010F900F900F900F90DF91CF911D
:102710001F910F91FF90EF90089580E591E00E9446
:10272000870024E030E0AE014F5F5F4F6CE070E067
:10273000F70184850E94AF0881E891E0F801918358
:10274000808389819A81AB81BC8182839383A483B6
:10275000B583D7CF1F920F920FB60F9211242F93EC
:102760003F934F935F936F937F938F939F93AF9319
:10277000BF93EF93FF938BE692E00E942C01FF91B1
:10278000EF91BF91AF919F918F917F916F915F91E9
:102790004F913F912F910F900FBE0F901F90189562
:1027A0001F920F920FB60F9211242F938F939F9326
:1027B000EF93FF93E0917B02F0917C028081E091A6
:1027C0008102F091820282FD1BC09081809184027F
:1027D0008F5F8F7320918502821741F0E091840210
:1027E000F0E0E559FD4F958F80938402FF91EF91C2
:1027F0009F918F912F910F900FBE0F901F90189562
:102800008081F4CF1F920F920FB60F9211242F9355
:102810003F938F939F93AF93BF9380913C0290918E
:102820003D02A0913E02B0913F0230913B0223E075
:10283000230F2D3758F50196A11DB11D20933B02A2
:1028400080933C0290933D02A0933E02B0933F02DE
:102850008091400290914102A0914202B0914302C6
:102860000196A11DB11D8093400290934102A09357
:102870004202B0934302BF91AF919F918F913F91DC
:102880002F910F900FBE0F901F90189526E8230FE1
:102890000296A11DB11DD2CFEBE6F2E013821282A7
:1028A00088EE93E0A0E0B0E084839583A683B783AD
:1028B0008FE691E09183808385EC90E09587848713
:1028C00084EC90E09787868780EC90E0918B808BFA
:1028D00081EC90E0938B828B82EC90E0958B848BE3
:1028E00086EC90E0978B868B118E128E138E148E51
:1028F000E8E0F3E081E891E0918380831282138223
:1029000014821582EEE0F3E09183808312821382B9
:1029100014821582E4E1F3E09183808312821382B2
:1029200014821582EAE1F3E091838083128213829C
:1029300014821582E0E2F3E0918380831282138295
:1029400014821582ECE2F3E0918380831282138279
:1029500014821582E6E2F3E091838083128213826F
:1029600014821582E2E3F3E0918380831282138262
:1029700014821582E8E3F3E091838083128213824C
:1029800014821582ECE5F3E0918380831282138236
:1029900014821582E6E5F3E09183808340EC428364
:1029A00038EA33832FE1248350E95583E0E5F3E0EF
:1029B0009183808342833383248351E05583EAE407
:1029C000F3E0918380834283338324835583E4E45B
:1029D000F3E0918380838FEF828383831482158257
:1029E000EEE3F3E01382128287E891E09183808323
:1029F00087E190E0958384830895CF93DF93CDB7EB
:102A0000DEB7A1970FB6F894DEBF0FBECDBF7894A6
:102A100084B5826084BD84B5816084BD85B58260E3
:102A200085BD85B5816085BD80916E008160809394
:102A30006E001092810080918100826080938100FD
:102A4000809181008160809381008091800081600D
:102A5000809380008091B10084608093B100809168
:102A6000B00081608093B00080917A008460809390
:102A70007A0080917A00826080937A0080917A0057
:102A8000816080937A0080917A00806880937A00D8
:102A90001092C10081E891E09A83898340914603B6
:102AA0005091470360914803709149034B835C83C5
:102AB0006D837E83998B888B40914C0350914D039D
:102AC00060914E0370914F034A8B5B8B6C8B7D8BB7
:102AD0009F8B8E8B4091520350915303609154030E
:102AE00070915503488F598F6A8F7B8F9D8F8C8F84
:102AF0008091580390915903A0915A03B0915B03C0
:102B00008E8F9F8FA8A3B9A39E012F5F3F4FAE0169
:102B1000405F5F4FBE016A5E7F4FCE014C960E94C0
:102B20005C07E0917B02F0917C0282E08083E0917F
:102B30007702F09178021082E0917902F0917A02A6
:102B40008FEC808310928302E0917F02F0918002EB
:102B500086E08083E0917D02F0917E028081806139
:102B60008083E0917D02F0917E0280818860808385
:102B7000E0917D02F0917E02808180688083E09107
:102B80007D02F0917E0280818F7D8083E0916902D9
:102B9000E353E53030F4F0E0EA59FE4F80818111D3
:102BA0000DC066E971E08BE692E00E949B0461E053
:102BB00070E080E090E00E94E001F9CF80916A022D
:102BC000882309F477C080916902843309F477C0BF
:102BD000873309F485C08EE393E00E942A0B6DEFE2
:102BE00071E08BE692E00E94400481E891E09A83D4
:102BF00089831B821C821D821E8280E591E00E94D7
:102C0000870044E050E0BE016D5F7F4F8FE090E0B1
:102C10000E94F9046BE672E0CE0101960E94AF04B7
:102C200063E971E08BE692E00E94400480E0E82EC8
:102C300080E0F82E01E06EE373E0CE0101960E9481
:102C4000450D8D85843060F580914402811112C05C
:102C5000CE0101960E94290C62E172E08BE692E0BF
:102C60000E949B0467E272E0CE0101960E949B04E1
:102C700000934402CE0101960E94150E1816190603
:102C80007CF4CE0101960E94350F182F682F8EE339
:102C900093E00E949303612F8BE692E00E944E0125
:102CA000E114F10441F20E941801882321F20E94EC
:102CB0000000C1CF0E94FE05811185CF8CCF80E539
:102CC00091E00E94870085E390E00E94D30585FD96
:102CD00082CF6CED71E08BE692E00E949B047BCF8B
:102CE00080E591E00E9487008EE290E00E94D3058B
:102CF00080FD71CFEECFA1E21A2EAA1BBB1BFD01F6
:102D00000DC0AA1FBB1FEE1FFF1FA217B307E407CA
:102D1000F50720F0A21BB30BE40BF50B661F771F22
:102D2000881F991F1A9469F7609570958095909502
:102D30009B01AC01BD01CF010895EE0FFF1F05906F
:102D4000F491E02D0994DC0101C06D934150504095
:082D5000E0F70895F894FFCFAD
:102D580000C0A85E456FCF7901005E00000000004A
:102D68000000B4039E0C3E0C290C150E350FB90556
:102D7800830ADD124F0F45082308DD03DA03D80361
:102D8800A903CE03820F6813580FCA03000000007E
:102D98007D03B90C3D04AD00A9000B0FAA05050B76
:102DA8009B09E407E6036A127E08AC0FEC0E3504B3
:102DB800250421041D040102000003000000004E48
:102DC80001AE00DB009B010C01EA00FE00000000E0
:102DD80000AF04000000009303C40D3D043C042A26
:102DE8000BFF070D0A0045746865726E65742073E1
:102DF8006869656C6420776173206E6F7420666FF4
:102E0800756E642E2020536F7272792C2063616E68
:102E180027742072756E20776974686F75742068DE
:102E2800617264776172652E203A2800457468657E
:102E3800726E6574206361626C65206973206E6FC1
:102E48007420636F6E6E65637465642E00436861F9
:102E58007420736572766572206164647265737339
:102E68003A00576520686176652061206E65772095
:102E7800636C69656E740048656C6C6F2C20636CBC
:062E880069656E74210073
:00000001FF
