:100000000C9436000C945E000C945E000C945E0020
:100010000C945E000C945E000C945E000C945E00E8
:100020000C945E000C945E000C945E000C945E00D8
:100030000C945E000C945E000C945E000C945E00C8
:100040000C9409020C945E000C9479020C945302F7
:100050000C945E000C945E000C945E000C945E00A8
:100060000C945E000C945E00AB02BF0311241FBE13
:10007000CFEFD8E0DEBFCDBF21E0AAE2B1E001C002
:100080001D92AB3DB207E1F711E0A0E0B1E0E2E77D
:10009000FCE002C005900D92AA32B107D9F710E03A
:1000A000C5E3D0E004C02197FE010E943404C433AC
:1000B000D107C9F70E9423030C942C060C9400006E
:1000C000AF92BF92CF92DF92EF92FF920F931F9366
:1000D000CF93DF936C017B018B01040F151FEB01A4
:1000E0005E01AE18BF08C017D10759F06991D6015B
:1000F000ED91FC910190F081E02DC6010995892BCD
:1001000079F7C501DF91CF911F910F91FF90EF908B
:10011000DF90CF90BF90AF900895FC01538D448D38
:10012000252F30E0842F90E0821B930B541710F0A2
:10013000CF96089501970895FC01918D828D9817AF
:1001400061F0A28DAE0FBF2FB11D5D968C91928D87
:100150009F5F9F73928F90E008958FEF9FEF0895B8
:10016000FC01918D828D981731F0828DE80FF11D81
:10017000858D90E008958FEF9FEF0895FC01918D9C
:10018000228D892F90E0805C9F4F821B91098F7395
:100190009927089584E391E00E94BE0021E0892B15
:1001A00009F420E0822F0895FC01A48DA80FB92F37
:1001B000B11DA35ABF4F2C91848D90E001968F738F
:1001C0009927848FA689B7892C93A089B1898C91AE
:1001D000837080648C93938D848D981306C00288FD
:1001E000F389E02D80818F7D80830895EF92FF92C7
:1001F0000F931F93CF93DF93EC0181E0888F9B8D4A
:100200008C8D98131AC0E889F989808185FF15C003
:100210009FB7F894EE89FF896083E889F989808126
:100220008370806480839FBF81E090E0DF91CF91F5
:100230001F910F91FF90EF900895F62E0B8D10E017
:100240000F5F1F4F0F731127E02E8C8D8E110CC086
:100250000FB607FCFACFE889F989808185FFF5CFD1
:10026000CE010E94D400F1CFEB8DEC0FFD2FF11DDC
:10027000E35AFF4FF0829FB7F8940B8FEA89FB890E
:1002800080818062CFCFCF93DF93EC01888D88236C
:10029000B9F0AA89BB89E889F9898C9185FD03C0E9
:1002A000808186FD0DC00FB607FCF7CF8C9185FFCE
:1002B000F2CF808185FFEDCFCE010E94D400E9CF3F
:1002C000DF91CF9108950F931F93CF93DF93EC01AC
:1002D00088819981009759F02A813B812617370739
:1002E00030F081E0DF91CF911F910F9108958B0144
:1002F0006F5F7F4F0E945F05009759F09983888355
:100300001B830A832C813D81232B59F7FC0110822A
:10031000E8CF80E0E7CFEF92FF920F931F93CF9348
:10032000DF93CDB7DEB768970FB6F894DEBF0FBE88
:10033000CDBFCE0101967C0184E391E00E94BE0016
:10034000892B09F453C084E391E00E949C00082E9D
:10035000000C990B9C01205331092A30310560F7BC
:100360001C8A1B8A1E8A1D8A188E1F8A4AE0B701C2
:100370000E94C803F70101900020E9F731978F012F
:100380000E191F09B801CE0143960E9463012B8903
:100390003C89811124C02115310519F0C9010E9441
:1003A000D6041C8A1B8A188E1F8A1E8A1D8A4F89B2
:1003B000588D6B897C8984E391E00E94600042E063
:1003C00050E068E171E084E391E00E9460008B8975
:1003D0009C89009709F4B0CF0E94D604ADCF188F46
:1003E0000F8BB701C9010E942506E1CF68960FB6B1
:1003F000F894DEBF0FBECDBFDF91CF911F910F915B
:10040000FF90EF9008950E94CA0081110C948B0117
:1004100008951F920F920FB60F9211242F933F93BE
:100420008F939F93AF93BF9380913001909131014F
:10043000A0913201B091330130912F0123E0230FBD
:100440002D3758F50196A11DB11D20932F018093E2
:10045000300190933101A0933201B0933301809128
:100460002B0190912C01A0912D01B0912E010196AC
:10047000A11DB11D80932B0190932C01A0932D0100
:10048000B0932E01BF91AF919F918F913F912F918A
:100490000F900FBE0F901F90189526E8230F02961D
:1004A000A11DB11DD2CF1F920F920FB60F92112432
:1004B0002F933F934F935F936F937F938F939F936C
:1004C000AF93BF93EF93FF9384E391E00E94D40036
:1004D000FF91EF91BF91AF919F918F917F916F911C
:1004E0005F914F913F912F910F900FBE0F901F90F2
:1004F00018951F920F920FB60F9211242F938F937E
:100500009F93EF93FF93E0914401F0914501808127
:10051000E0914A01F0914B0182FD1BC090818091D6
:100520004D018F5F8F7320914E01821741F0E09152
:100530004D01F0E0EC5CFE4F958F80934D01FF91F3
:10054000EF919F918F912F910F900FBE0F901F9061
:1005500018958081F4CF109237011092360188EE01
:1005600093E0A0E0B0E08093380190933901A0932C
:100570003A01B0933B018AE091E09093350180937A
:10058000340185EC90E0909341018093400184EC2C
:1005900090E0909343018093420180EC90E090932F
:1005A00045018093440181EC90E090934701809352
:1005B000460182EC90E0909349018093480186ECDB
:1005C00090E090934B0180934A0110924D0110925C
:1005D0004E0110924F01109250011092D2011092D0
:1005E000D1011092D4011092D3011092D601109231
:1005F000D5016DE070E081ED91E00E9463012091F2
:10060000D1013091D201811113C02115310519F0AA
:10061000C9010E94D6041092D2011092D101109209
:10062000D6011092D5011092D4011092D3010895F1
:100630008DE090E09093D6018093D5016BE171E05D
:10064000C9010C942506789484B5826084BD84B574
:10065000816084BD85B5826085BD85B5816085BDBD
:1006600080916E00816080936E0010928100809175
:1006700081008260809381008091810081608093FD
:100680008100809180008160809380008091B10022
:1006900084608093B1008091B00081608093B0004D
:1006A00080917A00846080937A0080917A008260E1
:1006B00080937A0080917A00816080937A008091A3
:1006C0007A00806880937A001092C100E091440122
:1006D000F091450182E08083E0914001F091410179
:1006E0001082E0914201F09143018FEC80831092DF
:1006F0004C01E0914801F091490186E08083E0914E
:100700004601F0914701808180618083E09146013C
:10071000F0914701808188608083E0914601F091EB
:100720004701808180688083E0914601F091470114
:1007300080818F7D8083D0E0C0E08091D501909151
:10074000D601C817D907A0F4E091D101F091D201E8
:10075000309759F410922A01EAE2F1E0608184E3D3
:1007600091E00E94F6002196E8CFEC0FFD1FF6CF36
:100770000E94CA008823E1F30E948B01F9CF809187
:10078000D1019091D201009711F00C94D6040895F4
:10079000BB274A3031F4992322F4BDE2909581952C
:1007A0009F4F0C94D403BB27FB015527AA27880F22
:1007B000991FAA1FA41710F0A41B83955051B9F7D5
:1007C000A05DAA3308F0A95DA193009779F7B11154
:1007D000B1931192CB010C94ED03DC01FC01672F66
:1007E00071917723E1F7329704C07C916D93708308
:1007F0006291AE17BF07C8F308952F923F924F92B0
:100800005F926F927F928F929F92AF92BF92CF92A0
:10081000DF92EF92FF920F931F93CF93DF93CDB7A9
:10082000DEB7CA1BDB0B0FB6F894DEBF0FBECDBF21
:1008300009942A88398848885F846E847D848C84F2
:100840009B84AA84B984C884DF80EE80FD800C81FB
:100850001B81AA81B981CE0FD11D0FB6F894DEBFDE
:100860000FBECDBFED010895EE0FFF1F0590F4916F
:10087000E02D09940F931F93CF93DF93823091055E
:1008800010F482E090E0E091D901F091DA0130E0DB
:1008900020E0B0E0A0E0309799F42115310509F48B
:1008A0004AC0281B390B24303105D8F58A819B8139
:1008B0006115710589F1FB0193838283FE0111C0EB
:1008C000408151810281138148175907E0F0481790
:1008D000590799F4109761F012960C93129713969A
:1008E0001C933296CF01DF91CF911F910F91089504
:1008F0000093D9011093DA01F4CF2115310551F09D
:100900004217530738F0A901DB019A01BD01DF014D
:10091000F801C1CFEF01F9CF9093DA018093D901AB
:10092000CDCFFE01E20FF31F819391932250310945
:1009300039832883D7CF2091D7013091D801232B39
:1009400041F420910201309103013093D8012093AA
:10095000D70120910001309101012115310541F4A9
:100960002DB73EB74091040150910501241B350B72
:10097000E091D701F091D801E217F307A0F42E1B04
:100980003F0B2817390778F0AC014E5F5F4F2417F3
:10099000350748F04E0F5F1F5093D8014093D701A1
:1009A000819391939FCFF0E0E0E09CCFCF93DF93D2
:1009B0000097E9F0FC01329713821282A091D901CD
:1009C000B091DA01ED0130E020E01097A1F4208130
:1009D0003181820F931F2091D7013091D8012817C0
:1009E000390709F061C0F093D801E093D701DF9196
:1009F000CF910895EA01CE17DF07E8F54A815B81C0
:100A00009E0141155105B1F7E901FB83EA83499144
:100A10005991C40FD51FEC17FD0761F480819181B6
:100A20000296840F951FE9019983888382819381BF
:100A30009B838A83F0E0E0E012968D919C9113975E
:100A40000097B9F52D913C911197CD010296820F37
:100A5000931F2091D7013091D8012817390739F613
:100A6000309751F51092DA011092D901B093D80164
:100A7000A093D701BCCFD383C28340815181840F1F
:100A8000951FC817D90761F44E5F5F4F8881998120
:100A9000480F591F518340838A819B8193838283AE
:100AA0002115310509F0B0CFF093DA01E093D901B7
:100AB0009ECFFD01DC01C0CF13821282D7CFB0E000
:100AC000A0E0E5E6F5E00C94FF038C01009751F4FB
:100AD000CB010E943A048C01C801CDB7DEB7E0E13A
:100AE0000C941B04FC01E60FF71F9C0122503109F6
:100AF000E217F30708F49DC0D901CD91DC9111975D
:100B0000C617D70798F0C530D10530F3CE0104974A
:100B10008617970708F3C61BD70B2297C193D1936B
:100B20006D937C93CF010E94D604D6CF5B01AC1AA3
:100B3000BD0A4C018C0E9D1EA091D901B091DA0125
:100B4000512C412CF12CE12C109731F58091D701DB
:100B50009091D8018815990509F05CC04616570692
:100B600008F058C08091000190910101009741F474
:100B70008DB79EB74091040150910501841B950BE0
:100B8000E817F90708F055C0F093D801E093D701B2
:100B9000F90171836083A0CF8D919C91119712967A
:100BA0006C90129713967C901397A815B90559F578
:100BB0006C0142E0C40ED11CCA14DB0420F1AC016C
:100BC0004A195B09DA011296159780F062827382E6
:100BD00051834083D9016D937C93E114F10471F04A
:100BE000D7011396FC93EE93129776CF22968C0F33
:100BF0009D1FF90191838083F301EFCFF093DA0118
:100C0000E093D90169CF4816590608F42C017D01FB
:100C1000D3019ACFCB010E943A047C01009749F09E
:100C2000AE01B8010E941C06C8010E94D6048701CB
:100C300053CF10E000E050CFFB01DC0102C0019077
:100C40000D9241505040D8F70895FB01DC0101900E
:100C50000D920020E1F7089510E0C5E3D0E004C054
:100C6000FE010E9434042196C633D107C9F7F894D7
:020C7000FFCFB4
:100C72000000DB01800000000000F60060008D0033
:100C82004301BE009C00B0000D0A0061626364650E
:0A0C920066670A68696A6B6C00006F
:107E0000112484B714BE81FFF0D085E080938100F7
:107E100082E08093C00088E18093C10086E0809377
:107E2000C20080E18093C4008EE0C9D0259A86E02C
:107E300020E33CEF91E0309385002093840096BBD3
:107E4000B09BFECF1D9AA8958150A9F7CC24DD24C4
:107E500088248394B5E0AB2EA1E19A2EF3E0BF2EE7
:107E6000A2D0813461F49FD0082FAFD0023811F036
:107E7000013811F484E001C083E08DD089C08234E0
:107E800011F484E103C0853419F485E0A6D080C0E4
:107E9000853579F488D0E82EFF2485D0082F10E0AE
:107EA000102F00270E291F29000F111F8ED06801E7
:107EB0006FC0863521F484E090D080E0DECF843638
:107EC00009F040C070D06FD0082F6DD080E0C81688
:107ED00080E7D80618F4F601B7BEE895C0E0D1E017
:107EE00062D089930C17E1F7F0E0CF16F0E7DF06D8
:107EF00018F0F601B7BEE89568D007B600FCFDCFD4
:107F0000A601A0E0B1E02C9130E011968C91119780
:107F100090E0982F8827822B932B1296FA010C0160
:107F200087BEE89511244E5F5F4FF1E0A038BF0790
:107F300051F7F601A7BEE89507B600FCFDCF97BE46
:107F4000E89526C08437B1F42ED02DD0F82E2BD052
:107F50003CD0F601EF2C8F010F5F1F4F84911BD097
:107F6000EA94F801C1F70894C11CD11CFA94CF0C13
:107F7000D11C0EC0853739F428D08EE10CD085E9AC
:107F80000AD08FE07ACF813511F488E018D01DD067
:107F900080E101D065CF982F8091C00085FFFCCF94
:107FA0009093C60008958091C00087FFFCCF809118
:107FB000C00084FD01C0A8958091C6000895E0E648
:107FC000F0E098E1908380830895EDDF803219F02E
:107FD00088E0F5DFFFCF84E1DECF1F93182FE3DFCA
:107FE0001150E9F7F2DF1F91089580E0E8DFEE27F6
:047FF000FF270994CA
:027FFE00040479
:0400000300007E007B
:00000001FF
