:100000000C9453000C947B000C947B000C947B00AC
:100010000C947B000C947B000C947B000C947B0074
:100020000C947B000C947B000C947B000C947B0064
:100030000C947B000C947B000C947B000C947B0054
:100040000C94D8010C947B000C9448020C9422026E
:100050000C947B000C947B000C947B000C947B0034
:100060000C947B000C947B0000000000250028000D
:100070002B0000000000240027002A0004040404D0
:100080000404040402020202020203030303030342
:10009000010204081020408001020408102001021F
:1000A00004081020640311241FBECFEFD8E0DEBF88
:1000B000CDBF11E0A0E0B1E0E8E2FAE002C00590B7
:1000C0000D92A231B107D9F721E0A2E1B1E001C060
:1000D0001D92A83BB207E1F710E0C3E5D0E004C0F1
:1000E0002197FE010E940C05C235D107C9F70E9475
:1000F0007A020C9412050C940000AF92BF92CF923A
:10010000DF92EF92FF920F931F93CF93DF936C01D7
:100110007B018B01040F151FEB015E01AE18BF08B8
:10012000C017D10759F06991D601ED91FC9101906A
:10013000F081E02DC6010995892B79F7C501DF9182
:10014000CF911F910F91FF90EF90DF90CF90BF90D4
:10015000AF900895FC01538D448D252F30E0842FFE
:1001600090E0821B930B541710F0CF9608950197DF
:100170000895FC01918D828D981761F0A28DAE0FCC
:10018000BF2FB11D5D968C91928D9F5F9F73928F53
:1001900090E008958FEF9FEF0895FC01918D828D7F
:1001A000981731F0828DE80FF11D858D90E008954C
:1001B0008FEF9FEF0895FC01918D228D892F90E0A4
:1001C000805C9F4F821B91098F73992708958BE163
:1001D00091E00E94DB0021E0892B09F420E0822FCE
:1001E000089580E090E0892B29F00E94E7008111BA
:1001F0000C9400000895FC01A48DA80FB92FB11D27
:10020000A35ABF4F2C91848D90E001968F7399274C
:10021000848FA689B7892C93A089B1898C9183702A
:1002200080648C93938D848D981306C00288F38923
:10023000E02D80818F7D80830895EF92FF920F9350
:100240001F93CF93DF93EC0181E0888F9B8D8C8D82
:1002500098131AC0E889F989808185FF15C09FB776
:10026000F894EE89FF896083E889F9898081837039
:10027000806480839FBF81E090E0DF91CF911F91E8
:100280000F91FF90EF900895F62E0B8D10E00F5F09
:100290001F4F0F731127E02E8C8D8E110CC00FB6DF
:1002A00007FCFACFE889F989808185FFF5CFCE0177
:1002B0000E94FB00F1CFEB8DEC0FFD2FF11DE35AF7
:1002C000FF4FF0829FB7F8940B8FEA89FB898081FA
:1002D0008062CFCFCF93DF93EC01888D8823B9F074
:1002E000AA89BB89E889F9898C9185FD03C0808141
:1002F00086FD0DC00FB607FCF7CF8C9185FFF2CFBE
:10030000808185FFEDCFCE010E94FB00E9CFDF9118
:10031000CF9108958F929F92AF92BF920F931F93A8
:10032000CF93DF93CDB7DEB7A1970FB6F894DEBFBA
:100330000FBECDBF19A2423008F44AE08E010F5D16
:100340001F4F842E912CB12CA12CA50194010E9449
:10035000D604E62FB901CA01EA3044F5E05DD801C0
:10036000EE938D01232B242B252B79F790E080E051
:10037000109769F0FD0101900020E9F73197AF0176
:100380004A1B5B0BBD018BE191E00E947D00A196B1
:100390000FB6F894DEBF0FBECDBFDF91CF911F9196
:1003A0000F91BF90AF909F908F900895E95CD7CF49
:1003B0001F920F920FB60F9211242F933F938F939A
:1003C0009F93AF93BF938091170190911801A091D3
:1003D0001901B0911A013091160123E0230F2D3736
:1003E00058F50196A11DB11D2093160180931701A8
:1003F00090931801A0931901B0931A0180911201F2
:1004000090911301A0911401B09115010196A11DC5
:10041000B11D8093120190931301A0931401B09326
:100420001501BF91AF919F918F913F912F910F90A7
:100430000FBE0F901F90189526E8230F0296A11D5E
:10044000B11DD2CF1F920F920FB60F9211242F938E
:100450003F934F935F936F937F938F939F93AF934C
:10046000BF93EF93FF938BE191E00E94FB00FF911C
:10047000EF91BF91AF919F918F917F916F915F911C
:100480004F913F912F910F900FBE0F901F90189595
:100490001F920F920FB60F9211242F938F939F9359
:1004A000EF93FF93E0912B01F0912C018081E0917B
:1004B0003101F091320182FD1BC0908180913401A5
:1004C0008F5F8F7320913501821741F0E0913401E5
:1004D000F0E0E55EFE4F958F80933401FF91EF9140
:1004E0009F918F912F910F900FBE0F901F90189595
:1004F0008081F4CF789484B5826084BD84B58160B6
:1005000084BD85B5826085BD85B5816085BD8091DE
:100510006E00816080936E00109281008091810056
:10052000826080938100809181008160809381004E
:10053000809180008160809380008091B100846010
:100540008093B1008091B00081608093B000809171
:100550007A00846080937A0080917A008260809330
:100560007A0080917A00816080937A0080917A008D
:10057000806880937A001092C100EEE9F0E0249147
:10058000EAE8F0E084918823C1F090E0880F991F99
:10059000FC01EE58FF4FC591D491FC01E859FF4F83
:1005A000A591B4919FB7F8948881E22FE0958E23AE
:1005B00088838C91E823EC939FBF80E480937C0038
:1005C00080917A00806480937A0080917A0086FD21
:1005D000FCCF8091780060917900762F682F072EEC
:1005E000000C880B990B0E94C90323E23BED49EFF5
:1005F0005EE30E942D040E94910329E0269FA00142
:10060000279F500D1124CA0165E070E00E94C204CA
:10061000605E7F4FE0912B01F0912C0182E080839E
:10062000E0912701F09128011082E0912901F091D9
:100630002A018FEC808310923301E0912F01F09119
:10064000300186E08083E0912D01F0912E018081C0
:1006500080618083E0912D01F0912E01808188607E
:100660008083E0912D01F0912E018081806880834C
:10067000E0912D01F0912E0180818F7D80836B01AF
:10068000072E000CEE08FF0877FF1AC06DE28BE121
:1006900091E00E941D0166277727CB016C197D0927
:1006A0008E099F094AE00E948A01C0E0D0E02097AD
:1006B000F1F30E94E7008823D1F30E940000F7CFF6
:1006C0004AE0C701B601EFCFEBE1F1E013821282FD
:1006D00088EE93E0A0E0B0E084839583A683B7839F
:1006E00084E091E09183808385EC90E09587848716
:1006F00084EC90E09787868780EC90E0918B808BEC
:1007000081EC90E0938B828B82EC90E0958B848BD4
:1007100086EC90E0978B868B118E128E138E148E42
:1007200008950E9498036894B1110C9427040895C9
:100730000E940C0488F09F5798F0B92F9927B75161
:10074000B0F0E1F0660F771F881F991F1AF0BA9575
:10075000C9F714C0B13091F00E942604B1E00895A9
:100760000C942604672F782F8827B85F39F0B93F9B
:10077000CCF3869577956795B395D9F73EF4909528
:100780008095709561957F4F8F4F9F4F0895E894A6
:1007900009C097FB3EF490958095709561957F4FC9
:1007A0008F4F9F4F9923A9F0F92F96E9BB27939577
:1007B000F695879577956795B795F111F8CFFAF487
:1007C000BB0F11F460FF1BC06F5F7F4F8F4F9F4FB8
:1007D00016C0882311F096E911C0772321F09EE816
:1007E000872F762F05C0662371F096E8862F70E07C
:1007F00060E02AF09A95660F771F881FDAF7880F56
:100800009695879597F9089557FD9058440F551F71
:1008100059F05F3F71F04795880F97FB991F61F082
:100820009F3F79F087950895121613061406551FF9
:10083000F2CF4695F1DF08C0161617061806991F65
:10084000F1CF86957105610508940895E894BB275A
:1008500066277727CB0197F908950E9440040C94EE
:10086000B1040E94A30438F00E94AA0420F095234A
:1008700011F00C949A040C94A00411240C942704F5
:100880000E94040470F3959FC1F3950F50E0551F2B
:10089000629FF001729FBB27F00DB11D639FAA27D5
:1008A000F00DB11DAA1F649F6627B00DA11D661F24
:1008B000829F2227B00DA11D621F739FB00DA11D45
:1008C000621F839FA00D611D221F749F3327A00DFF
:1008D000611D231F849F600D211D822F762F6A2F9B
:1008E00011249F5750409AF0F1F088234AF0EE0F00
:1008F000FF1FBB1F661F771F881F91505040A9F72D
:100900009E3F510580F00C949A040C9427045F3F9D
:10091000E4F3983ED4F3869577956795B795F79568
:10092000E7959F5FC1F7FE2B880F911D96958795E0
:1009300097F9089597F99F6780E870E060E008955F
:100940009FEF80EC089500240A94161617061806E7
:100950000906089500240A941216130614060506C3
:100960000895092E0394000C11F4882352F0BB0F54
:1009700040F4BF2B11F460FF04C06F5F7F4F8F4FB7
:100980009F4F089597FB072E16F4009407D077FD2C
:1009900009D00E94F80407FC05D03EF4909581959B
:1009A0009F4F0895709561957F4F0895A1E21A2E8B
:1009B000AA1BBB1BFD010DC0AA1FBB1FEE1FFF1F03
:1009C000A217B307E407F50720F0A21BB30BE40B53
:1009D000F50B661F771F881F991F1A9469F760959A
:1009E0007095809590959B01AC01BD01CF01089554
:1009F000AA1BBB1B51E107C0AA1FBB1FA617B70745
:100A000010F0A61BB70B881F991F5A95A9F7809560
:100A10009095BC01CD010895EE0FFF1F0590F49154
:080A2000E02D0994F894FFCFCA
:100A2800000000001D017D00AA006A01DB00B9007A
:020A3800CD00EF
:107E0000112484B714BE81FFF0D085E080938100F7
:107E100082E08093C00088E18093C10086E0809377
:107E2000C20080E18093C4008EE0C9D0259A86E02C
:107E300020E33CEF91E0309385002093840096BBD3
:107E4000B09BFECF1D9AA8958150A9F7CC24DD24C4
:107E500088248394B5E0AB2EA1E19A2EF3E0BF2EE7
:107E6000A2D0813461F49FD0082FAFD0023811F036
:107E7000013811F484E001C083E08DD089C08234E0
:107E800011F484E103C0853419F485E0A6D080C0E4
:107E9000853579F488D0E82EFF2485D0082F10E0AE
:107EA000102F00270E291F29000F111F8ED06801E7
:107EB0006FC0863521F484E090D080E0DECF843638
:107EC00009F040C070D06FD0082F6DD080E0C81688
:107ED00080E7D80618F4F601B7BEE895C0E0D1E017
:107EE00062D089930C17E1F7F0E0CF16F0E7DF06D8
:107EF00018F0F601B7BEE89568D007B600FCFDCFD4
:107F0000A601A0E0B1E02C9130E011968C91119780
:107F100090E0982F8827822B932B1296FA010C0160
:107F200087BEE89511244E5F5F4FF1E0A038BF0790
:107F300051F7F601A7BEE89507B600FCFDCF97BE46
:107F4000E89526C08437B1F42ED02DD0F82E2BD052
:107F50003CD0F601EF2C8F010F5F1F4F84911BD097
:107F6000EA94F801C1F70894C11CD11CFA94CF0C13
:107F7000D11C0EC0853739F428D08EE10CD085E9AC
:107F80000AD08FE07ACF813511F488E018D01DD067
:107F900080E101D065CF982F8091C00085FFFCCF94
:107FA0009093C60008958091C00087FFFCCF809118
:107FB000C00084FD01C0A8958091C6000895E0E648
:107FC000F0E098E1908380830895EDDF803219F02E
:107FD00088E0F5DFFFCF84E1DECF1F93182FE3DFCA
:107FE0001150E9F7F2DF1F91089580E0E8DFEE27F6
:047FF000FF270994CA
:027FFE00040479
:0400000300007E007B
:00000001FF
