:100000000C9458000C9480000C9480000C94800098
:100010000C9480000C9480000C9480000C94800060
:100020000C9480000C9480000C9480000C94800050
:100030000C9480000C9480000C9480000C94800040
:100040000C943E040C9480000C940C040C94E60375
:100050000C9480000C9480000C9480000C94800020
:100060000C9488040C9480000000000025002800F7
:100070002B00040404040404040402020202020229
:10008000030303030303010204081020408001025C
:1000900004081020010204081020000000080002DB
:1000A0000100000304070000000000000000A70595
:1000B00011241FBECFEFD8E0DEBFCDBF11E0A0E01E
:1000C000B1E0E6EDF5E102C005900D92A034B10774
:1000D000D9F722E0A0E4B1E001C01D92A83BB2072D
:1000E000E1F710E0C8E5D0E004C02197FE010E94CE
:1000F000F108C735D107C9F70E94EF050C94E90A4A
:100100000C94000090E0FC01E656FF4F2491FC01A6
:10011000EA57FF4F3491FC01EE58FF4FE491EE2374
:10012000B1F0222339F02330E9F090F4213001F1CD
:10013000223011F1F0E0EE0FFF1FE859FF4FA591BB
:10014000B4918FB7F894EC913E2B3C938FBF0895F8
:100150002730A9F02830C9F0243061F78091800061
:100160008F7D03C0809180008F7780938000E2CFE5
:1001700084B58F7784BDDECF84B58F7DFBCF809132
:10018000B0008F778093B000D5CF8091B0008F7D85
:10019000F9CF08950895AF92BF92CF92DF92EF9278
:1001A000FF920F931F93CF93DF936C017B018B0121
:1001B000040F151FEB015E01AE18BF08C017D10771
:1001C00059F06991D601ED91FC910190F081E02DFB
:1001D000C6010995892B79F7C501DF91CF911F9150
:1001E0000F91FF90EF90DF90CF90BF90AF90089568
:1001F000FC01538D448D252F30E0842F90E0821B2D
:10020000930B541710F0CF96089501970895FC01B1
:10021000918D828D981761F0A28DAE0FBF2FB11D09
:100220005D968C91928D9F5F9F73928F90E0089561
:100230008FEF9FEF0895FC01918D828D981731F01B
:10024000828DE80FF11D858D90E008958FEF9FEF6F
:100250000895FC01918D228D892F90E0805C9F4F45
:10026000821B91098F73992708958FEF91E00E9467
:10027000290121E0892B09F420E0822F089580E0F4
:1002800090E0892B29F00E94350181110C94000027
:100290000895FC01A48DA80FB92FB11DA35ABF4F1B
:1002A0002C91848D90E001968F739927848FA68975
:1002B000B7892C93A089B1898C91837080648C93C9
:1002C000938D848D981306C00288F389E02D808178
:1002D0008F7D80830895EF92FF920F931F93CF93AA
:1002E000DF93EC0181E0888F9B8D8C8D98131AC071
:1002F000E889F989808185FF15C09FB7F894EE8958
:10030000FF896083E889F9898081837080648083B4
:100310009FBF81E090E0DF91CF911F910F91FF90FF
:10032000EF900895F62E0B8D10E00F5F1F4F0F73A7
:100330001127E02E8C8D8E110CC00FB607FCFACF62
:10034000E889F989808185FFF5CFCE010E944901B6
:10035000F1CFEB8DEC0FFD2FF11DE35AFF4FF08233
:100360009FB7F8940B8FEA89FB8980818062CFCF99
:10037000CF93DF93EC01888D8823B9F0AA89BB89DC
:10038000E889F9898C9185FD03C0808186FD0DC0C7
:100390000FB607FCF7CF8C9185FFF2CF808185FFE8
:1003A000EDCFCE010E944901E9CFDF91CF910895B1
:1003B0003FB7F8948091EE019091EF01A091F00188
:1003C000B091F10126B5A89B05C02F3F19F0019609
:1003D000A11DB11D3FBFBA2FA92F982F8827BC019F
:1003E000CD01620F711D811D911D42E0660F771FC7
:1003F000881F991F4A95D1F708958F929F92AF92C7
:10040000BF92CF92DF92EF92FF924B015C010E946C
:10041000D8016B017C010E94D8016C197D098E09FD
:100420009F09683E734081059105A8F321E0821A77
:100430009108A108B10888EEC80E83E0D81EE11C1F
:10044000F11C81149104A104B10429F7FF90EF90ED
:10045000DF90CF90BF90AF909F908F90089585EDE3
:100460008093BC008091BC0084FDFCCF1092F80109
:1004700008952091A201260F3327331F2132310521
:10048000ECF42091F801FC0190E080E0243069F068
:1004900082E00895A091A2012191AC014E575E4FD8
:1004A000A40FB52FB11D2C930196861798F3809158
:1004B000A201680F6093A20180E0089581E0089591
:1004C0000895E091FC018091FB01E81730F4F0E021
:1004D000EE59FE4F808190E008958FEF9FEF0895D1
:1004E0009091FC018091FB012FEF3FEF981748F4AA
:1004F000E92FF0E0EE59FE4F208130E09F5F9093AE
:10050000FC01C90108958091FB019091FC01891BB8
:10051000990B0895CF92DF92EF92FF920F931F9362
:10052000CF93DF937C01CB018A01209161012223CB
:1005300089F0EB016B01C40ED51ECC15DD0569F009
:100540006991D701ED91FC910190F081E02DC701F7
:100550000995F3CF642F0E943902C801DF91CF9132
:100560001F910F91FF90EF90DF90CF900895CF9360
:10057000DF931F92CDB7DEB76983209161012223FB
:10058000F9F02091F901203258F021E030E0FC012F
:100590003383228390E080E00F90DF91CF91089524
:1005A0008091FA01E82FF0E0EF5BFE4F9981908394
:1005B0008F5F8093FA018093F90181E090E0ECCFA6
:1005C00061E0CE0101960E943902F7CFCF93FC0182
:1005D000C48121E020936101C09340011092FA018F
:1005E0001092F9018385682B8CE992E00E94B70292
:1005F0009091F901913208F03FC08091F80181118A
:10060000FCCF82E08093F80181E08093F7018FEFC7
:100610008093C5011092E7019093E601A1E4B1E057
:10062000E6ECF1E080E098132FC01092E801809191
:10063000E801CC0FC82BC093E8018091F60181300E
:1006400039F51092F6018091E8018093BB0080910A
:10065000BC0083FDF8CF85EC8093BC008091F8014D
:100660008230E1F38091C5018F3F31F08091C50167
:10067000803211F08091C5011092FA011092F901B7
:1006800010926101CF9108952D9121938F5FCBCF6F
:1006900085EEE2CF089590E080E00895FC0180812E
:1006A0009181009711F00C94930908950F931F9373
:1006B000CF938C01C62F0E94E6026C2F6460C801A4
:1006C0000E94E6026C2F6B7FC8010E94E60283EC59
:1006D00090E00197F1F7CF911F910F9108950F933B
:1006E0001F93CF93DF938C01D62FC42F607F642B91
:1006F0000E94560380E1D89FB00111246C2BC801E1
:10070000DF91CF911F910F910C945603682F606871
:1007100040E088EA92E00C946F0341E00E946F038E
:1007200081E090E008950F931F93CF93DF93EC0146
:1007300088819981009759F02A813B8126173707D4
:1007400030F081E0DF91CF911F910F9108958B01DF
:100750006F5F7F4F0E941C0A009759F0998388832E
:100760001B830A832C813D81232B59F7FC011082C6
:10077000E8CF80E0E7CFEF92FF920F931F93CF93E4
:10078000DF93EC017B018A01BA010E949303288167
:100790003981811114C02115310519F0C9010E9458
:1007A0009309198218821D821C821B821A82CE0133
:1007B000DF91CF911F910F91FF90EF9008951D83CE
:1007C0000C83B701C9010E94E20AF1CF1F920F9278
:1007D0000FB60F9211242F933F934F935F936F9314
:1007E0007F938F939F93AF93BF93EF93FF938FEF7D
:1007F00091E00E944901FF91EF91BF91AF919F91CC
:100800008F917F916F915F914F913F912F910F90B9
:100810000FBE0F901F9018951F920F920FB60F9258
:1008200011242F938F939F93EF93FF93E0910F02E7
:10083000F09110028081E0911502F091160282FD84
:100840001BC09081809118028F5F8F7320911902D5
:10085000821741F0E0911802F0E0E150FE4F958FD1
:1008600080931802FF91EF919F918F912F910F909C
:100870000FBE0F901F9018958081F4CF1F920F929A
:100880000FB60F9211242F933F938F939F93AF93A3
:10089000BF938091EA019091EB01A091EC01B0919E
:1008A000ED013091E90123E0230F2D3758F5019632
:1008B000A11DB11D2093E9018093EA019093EB0102
:1008C000A093EC01B093ED018091EE019091EF01C6
:1008D000A091F001B091F1010196A11DB11D80938D
:1008E000EE019093EF01A093F001B093F101BF915D
:1008F000AF919F918F913F912F910F900FBE0F90CD
:100900001F90189526E8230F0296A11DB11DD2CF86
:100910001F920F920FB60F9211242F933F934F9374
:100920005F936F937F938F939F93AF93BF93EF9357
:10093000FF938091B900887F803609F44AC0F0F5B2
:10094000883209F4A7C018F5803109F49BC0B8F4C7
:10095000882309F4F9C0883009F494C0FF91EF911D
:10096000BF91AF919F918F917F916F915F914F91C7
:100970003F912F910F900FBE0F901F9018958831C7
:1009800009F488C0803251F78093C50114C08034C7
:1009900009F49DC040F48033B9F38833F9F68093AD
:1009A000C50185ECB0C0803509F485C0883509F4EF
:1009B00096C0883499F60E942F02D0CF883909F466
:1009C0008CC038F5883729F050F4883611F080371C
:1009D00029F683E08093F8011092C40157C088384B
:1009E00009F47BC0803919F0803809F0B7CF8091C5
:1009F000C401803208F071C0E091C40181E08E0F23
:100A00008093C4018091BB00F0E0EC55FE4F8083E1
:100A10003DC0803B39F0E0F4803A09F479C0883A6F
:100A200009F09CCF84E08093F8011092A30110920A
:100A3000A201E091F401F091F50109958091A201E4
:100A400081110FC081E08093A2011092820109C040
:100A5000803C09F4A6CF883C09F4A3CF883B09F079
:100A60007DCFE091A30181E08E0F8093A301F0E0A0
:100A7000EE57FE4F80818093BB009091A30180913F
:100A8000A20129C08091E8018093BB0085EC80938E
:100A9000BC0064CF9091E7018091E601981758F56A
:100AA000E091E70181E08E0F8093E701F0E0EA53E7
:100AB000FE4F8081E9CFE091E70181E08E0F8093C6
:100AC000E7018091BB00F0E0EA53FE4F80839091F4
:100AD000E7018091E6019817C8F285E8D8CFE09148
:100AE000E70181E08E0F8093E7018091BB00F0E089
:100AF000EA53FE4F80838091F70181115CCF81E042
:100B00008093F60184EA8093BC001092F80126CF0E
:100B100085EC8093BC001092F8018091C401803272
:100B200030F4E091C401F0E0EC55FE4F108260918A
:100B3000C40170E0E091F201F091F30184EA91E0E8
:100B400009951092C4010ACF1092C50134CFEFEF7E
:100B5000F1E01382128288EE93E0A0E0B0E084839B
:100B60009583A683B78322E131E03183208325EC8E
:100B700030E03587248724EC30E03787268720EC67
:100B800030E0318B208B21EC30E0338B228B22EC58
:100B900030E0358B248B26EC30E0378B268B118EA2
:100BA000128E138E148EECE9F2E01382128284838B
:100BB0009583A683B78384E291E091838083E8EAFA
:100BC000F2E01382128286E391E09183808387E2D0
:100BD000848380E1818782E0828713860895CF93A2
:100BE000DF93CDB7DEB76E970FB6F894DEBF0FBEBA
:100BF000CDBF789484B5826084BD84B5816084BDA6
:100C000085B5826085BD85B5816085BD80916E00AA
:100C1000816080936E0010928100809181008260DB
:100C20008093810080918100816080938100809118
:100C300080008160809380008091B1008460809307
:100C4000B1008091B00081608093B00080917A0003
:100C5000846080937A0080917A00826080937A0029
:100C600080917A00816080937A0080917A00806818
:100C700080937A001092C1001092FC011092FB0147
:100C80001092FA011092F9011092F80181E080931C
:100C9000F7011092F60182E10E94820083E10E9436
:100CA00082008091B9008E7F8093B9008091B90055
:100CB0008D7F8093B90088E48093B80085E48093A9
:100CC000BC0089EC90E09093F5018093F4018AECEC
:100CD00090E09093F3018093F2011092AD02809125
:100CE000B202823018F098E09093AD028093B00287
:100CF00062E370E080E090E00E94FD016091B30249
:100D000088EA92E00E94E60268EE73E080E090E0FC
:100D10000E94FD0160E388EA92E00E9456030BE422
:100D200016E4C8010197F1F760E388EA92E00E94B7
:100D30005603C8010197F1F760E388EA92E00E9448
:100D4000560383E592E00197F1F760E288EA92E0CA
:100D50000E9456036091AD02606240E088EA92E032
:100D60000E946F0384E08093AE0240E06CE088EA6A
:100D700092E00E946F0340E061E088EA92E00E9406
:100D80006F030BE31FE1C8010197F1F782E0809345
:100D9000AF0240E066E088EA92E00E946F0340E024
:100DA00062E088EA92E00E946F03C8010197F1F7C0
:100DB00088E08093B30260E088EA92E00E94E60255
:100DC00040E060E488EA92E00E946F0306E011E0F0
:100DD000F80161918F0188EA92E00E948D03F1E0B1
:100DE0000E301F07A9F7E0910F02F091100282E088
:100DF0008083E0910B02F0910C021082E0910D02D1
:100E0000F0910E028FEC808310921702E091130292
:100E1000F091140286E08083E0911102F0911202B9
:100E2000808180618083E0911102F09112028081C3
:100E300088608083E0911102F091120280818068C5
:100E40008083E0911102F091120280818F7D808376
:100E5000812C94E0992EA12CB12C2BE3422E2FE172
:100E6000522E3CE0632E712C8E010F5F1F4F84E6E3
:100E7000282E8091FE018093FD0180E480937C0008
:100E800080917A00806480937A0080917A0086FD58
:100E9000FCCF80917800A0917900BA2FA82F2DE087
:100EA00030E00E94D608A50194010E943B08322E32
:100EB000C22E2093FE018091FD01281709F48CC0F9
:100EC00040E061E088EA92E00E946F03C20101976E
:100ED000F1F7F12CE12CD12CEC14FD0464F48E2DEF
:100EE0000E94860360E088EA92E00E948D039FEFF3
:100EF000E91AF90AF1CF8CE00E9486031A8E198E46
:100F00001C8E1B8E1E8E1D8E41E050E06EE371E044
:100F1000CE0149960E94BB031C8A1B8A1E8A1D8A29
:100F2000188E1F8A329CC0011124B3010E94C2088E
:100F3000CB014AE0B8010E940608F80101900020A8
:100F4000E9F73197AF01401B510BB801CE01439631
:100F50000E94BB031A8219821C821B821E821D8280
:100F60006B897C896115710529F04F89588DC801FD
:100F70000E94BB03C98CDA8CC114D104D1F1ED8C71
:100F8000FE8CE114F104A9F08D819E81E80EF91E1A
:100F9000B701C8010E949303882359F129813A813E
:100FA0008D819E81B601820F931F0E94E20AFE820C
:100FB000ED824D815E8169817A8188EA92E00E94AA
:100FC000CB00C8010E944E03CE0143960E944E03FF
:100FD000CE0149960E944E03E0E0F0E0EF2B09F4C9
:100FE00048CF0E943501882309F441CF0E940000B8
:100FF0003ECF89819A81009711F00E9493091A824D
:1010000019821E821D821C821B82D3CFBB274A30CD
:1010100031F4992322F4BDE2909581959F4F0C9471
:101020001208BB27FB015527AA27880F991FAA1F63
:10103000A41710F0A41B83955051B9F7A05DAA33F3
:1010400008F0A95DA193009779F7B111B1931192BE
:10105000CB010C942B08DC01FC01672F71917723E5
:10106000E1F7329704C07C916D9370836291AE1763
:10107000BF07C8F30895052E97FB1EF400940E9445
:10108000520857FD07D00E94910807FC03D04EF488
:101090000C94520850954095309521953F4F4F4FF5
:1010A0005F4F089590958095709561957F4F8F4F14
:1010B0009F4F08952F923F924F925F926F927F922F
:1010C0008F929F92AF92BF92CF92DF92EF92FF9258
:1010D0000F931F93CF93DF93CDB7DEB7CA1BDB0B04
:1010E0000FB6F894DEBF0FBECDBF09942A883988A9
:1010F00048885F846E847D848C849B84AA84B984B0
:10110000C884DF80EE80FD800C811B81AA81B981BB
:10111000CE0FD11D0FB6F894DEBF0FBECDBFED01CF
:101120000895A1E21A2EAA1BBB1BFD010DC0AA1F28
:10113000BB1FEE1FFF1FA217B307E407F50720F040
:10114000A21BB30BE40BF50B661F771F881F991FBB
:101150001A9469F760957095809590959B01AC0104
:10116000BD01CF010895A29FB001B39FC001A39F0D
:10117000700D811D1124911DB29F700D811D1124D0
:10118000911D089597FB072E16F4009407D077FD64
:1011900009D00E94DD0807FC05D03EF490958195AA
:1011A0009F4F0895709561957F4F08950E94B308F1
:1011B000B7FF0895821B930B0895AA1BBB1B51E137
:1011C00007C0AA1FBB1FA617B70710F0A61BB70BB7
:1011D000881F991F5A95A9F780959095BC01CD015C
:1011E0000895EE0FFF1F0590F491E02D09940F93E1
:1011F0001F93CF93DF938230910510F482E090E04B
:10120000E091B602F091B70230E020E0B0E0A0E05B
:10121000309799F42115310509F44AC0281B390B80
:1012200024303105D8F58A819B816115710589F1DA
:10123000FB0193838283FE0111C0408151810281B1
:10124000138148175907E0F04817590799F4109788
:1012500061F012960C93129713961C933296CF015D
:10126000DF91CF911F910F9108950093B6021093D3
:10127000B702F4CF2115310551F04217530738F06A
:10128000A901DB019A01BD01DF01F801C1CFEF0126
:10129000F9CF9093B7028093B602CDCFFE01E20F53
:1012A000F31F819391932250310939832883D7CF3B
:1012B0002091B4023091B502232B41F42091020118
:1012C000309103013093B5022093B40220910001C4
:1012D000309101012115310541F42DB73EB7409100
:1012E000040150910501241B350BE091B402F091EB
:1012F000B502E217F307A0F42E1B3F0B281739079E
:1013000078F0AC014E5F5F4F2417350748F04E0F61
:101310005F1F5093B5024093B402819391939FCF86
:10132000F0E0E0E09CCFCF93DF930097E9F0FC0181
:10133000329713821282A091B602B091B702ED01EA
:1013400030E020E01097A1F420813181820F931FBB
:101350002091B4023091B5022817390709F061C015
:10136000F093B502E093B402DF91CF910895EA01C2
:10137000CE17DF07E8F54A815B819E0141155105D3
:10138000B1F7E901FB83EA8349915991C40FD51F55
:10139000EC17FD0761F4808191810296840F951FFF
:1013A000E90199838883828193819B838A83F0E01A
:1013B000E0E012968D919C9113970097B9F52D91CD
:1013C0003C911197CD010296820F931F2091B40298
:1013D0003091B5022817390739F6309751F5109238
:1013E000B7021092B602B093B502A093B402BCCF7C
:1013F000D383C28340815181840F951FC817D907B9
:1014000061F44E5F5F4F88819981480F591F518366
:1014100040838A819B81938382832115310509F062
:10142000B0CFF093B702E093B6029ECFFD01DC018E
:10143000C0CF13821282D7CFB0E0A0E0E2E2FAE0A0
:101440000C945C088C01009751F4CB010E94F708C2
:101450008C01C801CDB7DEB7E0E10C947808FC013F
:10146000E60FF71F9C0122503109E217F30708F439
:101470009DC0D901CD91DC911197C617D70798F07F
:10148000C530D10530F3CE0104978617970708F3CE
:10149000C61BD70B2297C193D1936D937C93CF0139
:1014A0000E949309D6CF5B01AC1ABD0A4C018C0E89
:1014B0009D1EA091B602B091B702512C412CF12C87
:1014C000E12C109731F58091B4029091B502881506
:1014D000990509F05CC04616570608F058C080917F
:1014E000000190910101009741F48DB79EB74091A2
:1014F000040150910501841B950BE817F90708F0CA
:1015000055C0F093B502E093B402F9017183608392
:10151000A0CF8D919C91119712966C901297139673
:101520007C901397A815B90559F56C0142E0C40EDB
:10153000D11CCA14DB0420F1AC014A195B09DA01A1
:101540001296159780F06282738251834083D9018D
:101550006D937C93E114F10471F0D7011396FC9321
:10156000EE93129776CF22968C0F9D1FF9019183EF
:101570008083F301EFCFF093B702E093B60269CF17
:101580004816590608F42C017D01D3019ACFCB01EE
:101590000E94F7087C01009749F0AE01B8010E9453
:1015A000D90AC8010E949309870153CF10E000E0D7
:1015B00050CFFB01DC0102C001900D924150504020
:1015C000D8F70895FB01DC0101900D920020E1F7AE
:0615D0000895F894FFCF1E
:1015D6000000B80280001F1F1F1F1F1F1F1F0000D3
:1015E60000006B01CB00F800B801290107011B01BF
:1015F60000000000B7028A024B03600283027002F9
:101606006102000000008D03CB004B034A03250056
:00000001FF
