:100000000C9435000C945D000C945D000C945D0024
:100010000C945D000C945D000C945D000C945D00EC
:100020000C945D000C945D000C945D000C945D00DC
:100030000C945D000C945D000C945D000C945D00CC
:100040000C94F0020C945D000C94BE020C94980287
:100050000C945D000C945D000C945D000C945D00AC
:100060000C945D000C945D005E0411241FBECFEF64
:10007000D8E0DEBFCDBF21E0ACE1B1E001C01D9210
:10008000A63CB207E1F711E0A0E0B1E0E2EEFDE04E
:1000900002C005900D92AC31B107D9F710E0C5E36D
:1000A000D0E004C02197FE010E94F704C433D107B9
:1000B000C9F70E943A030C94EF060C940000AF922B
:1000C000BF92CF92DF92EF92FF920F931F93CF9345
:1000D000DF936C017B018B01040F151FEB015E01A7
:1000E000AE18BF08C017D10759F06991D601ED913C
:1000F000FC910190F081E02DC6010995892B79F7DB
:10010000C501DF91CF911F910F91FF90EF90DF908C
:10011000CF90BF90AF900895FC01448155816081DC
:10012000718185E291E00C945F00FC01538D448D58
:10013000252F30E0842F90E0821B930B541710F092
:10014000CF96089501970895FC01918D828D98179F
:1001500061F0A28DAE0FBF2FB11D5D968C91928D77
:100160009F5F9F73928F90E008958FEF9FEF0895A8
:10017000FC01918D828D981731F0828DE80FF11D71
:10018000858D90E008958FEF9FEF0895FC01918D8C
:10019000228D892F90E0805C9F4F821B91098F7385
:1001A0009927089585E291E00E94C60021E0892BFD
:1001B00009F420E0822F089580E090E0892B29F057
:1001C0000E94D20081110C9400000895FC01A48DBE
:1001D000A80FB92FB11DA35ABF4F2C91848D90E069
:1001E00001968F739927848FA689B7892C93A0894C
:1001F000B1898C91837080648C93938D848D9813D6
:1002000006C00288F389E02D80818F7D8083089568
:10021000EF92FF920F931F93CF93DF93EC0181E056
:10022000888F9B8D8C8D98131AC0E889F9898081FD
:1002300085FF15C09FB7F894EE89FF896083E88930
:10024000F98980818370806480839FBF81E090E022
:10025000DF91CF911F910F91FF90EF900895F62EAF
:100260000B8D10E00F5F1F4F0F731127E02E8C8D49
:100270008E110CC00FB607FCFACFE889F98980818E
:1002800085FFF5CFCE010E94E600F1CFEB8DEC0F9C
:10029000FD2FF11DE35AFF4FF0829FB7F8940B8FAB
:1002A000EA89FB8980818062CFCFCF93DF93EC0115
:1002B000888D8823B9F0AA89BB89E889F9898C914E
:1002C00085FD03C0808186FD0DC00FB607FCF7CF0A
:1002D0008C9185FFF2CF808185FFEDCFCE010E940A
:1002E000E600E9CFDF91CF9108958E50806480932E
:1002F0007C0080917A00806480937A0080917A00FB
:1003000086FDFCCF809178009091790008953FB7E9
:10031000F8948091210190912201A0912301B09144
:10032000240126B5A89B05C02F3F19F00196A11DF9
:10033000B11D3FBFBA2FA92F982F8827BC01CD012F
:10034000620F711D811D911D42E0660F771F881F8E
:10035000991F4A95D1F708950F931F93CF93DF9379
:10036000EC0188819981009759F02A813B812617F9
:10037000370730F081E0DF91CF911F910F91089501
:100380008B016F5F7F4F0E942206009759F099837F
:1003900088831B830A832C813D81232B59F7FC0121
:1003A0001082E8CF80E0E7CFCF93DF93EC01888124
:1003B0009981009711F00E949905198218821D8277
:1003C0001C821B821A82DF91CF910895CF92DF9217
:1003D000EF92FF920F931F93CF93DF93CDB7DEB7CA
:1003E00062970FB6F894DEBF0FBECDBF8C01CB0174
:1003F000F8011182108213821282158214824AE05F
:100400009E012F5F3F4F6901B9010E948B04F601E5
:1004100001900020E9F731977F01EC18FD08B70142
:10042000C8010E94AC01811112C0C8010E94D40110
:1004300062960FB6F894DEBF0FBECDBFDF91CF91AD
:100440001F910F91FF90EF90DF90CF900895F801EA
:10045000F582E482B601808191810E94E806E8CFAE
:10046000EF92FF920F931F93CF93DF938C017B0149
:10047000FB0101900020E9F73197E61BF70BD1F063
:10048000DC011496CD91DC91CE0FDF1FBE010E94DE
:10049000AC018823B9F0F8012081318184819581F4
:1004A000B701820F931F0E94E806D8011596DC93CE
:1004B000CE931497C801DF91CF911F910F91FF90B8
:1004C000EF900895C8010E94D401F4CFEF92FF92FB
:1004D0000F931F93CF93DF93EC018617970781F05B
:1004E000FB01008111810115110539F0E480F580CF
:1004F000B7010E94AC0181110BC0CE010E94D40152
:10050000CE01DF91CF911F910F91FF90EF90089551
:10051000FD82EC82B801888199810E94E806F0CFC3
:10052000FC0180819181009711F00C949905089548
:100530001F920F920FB60F9211242F933F934F9358
:100540005F936F937F938F939F93AF93BF93EF933B
:10055000FF9385E291E00E94E600FF91EF91BF9149
:10056000AF919F918F917F916F915F914F913F914B
:100570002F910F900FBE0F901F9018951F920F9202
:100580000FB60F9211242F938F939F93EF93FF93A6
:10059000E0913501F09136018081E0913B01F091CD
:1005A0003C0182FD1BC0908180913E018F5F8F7363
:1005B00020913F01821741F0E0913E01F0E0EB5DB8
:1005C000FE4F958F80933E01FF91EF919F918F9108
:1005D0002F910F900FBE0F901F9018958081F4CF30
:1005E0001F920F920FB60F9211242F933F938F9368
:1005F0009F93AF93BF9380911D0190911E01A09195
:100600001F01B091200130911C0123E0230F2D37F1
:1006100058F50196A11DB11D20931C0180931D0169
:1006200090931E01A0931F01B0932001809121019E
:1006300090912201A0912301B09124010196A11D66
:10064000B11D8093210190932201A0932301B093C7
:100650002401BF91AF919F918F913F912F910F9066
:100660000FBE0F901F90189526E8230F0296A11D2C
:10067000B11DD2CFCF93DF93CDB7DEB72C970FB696
:10068000F894DEBF0FBECDBF789484B5826084BD80
:1006900084B5816084BD85B5826085BD85B5816086
:1006A00085BD80916E00816080936E001092810004
:1006B00080918100826080938100809181008160BF
:1006C0008093810080918000816080938000809180
:1006D000B10084608093B1008091B000816080930C
:1006E000B00080917A00846080937A0080917A00D3
:1006F000826080937A0080917A00816080937A0092
:1007000080917A00806880937A001092C100E09115
:100710003501F091360182E08083E0913101F09162
:1007200032011082E0913301F09134018FEC80832B
:1007300010923D01E0913901F0913A0186E0808309
:10074000E0913701F0913801808180618083E091F0
:100750003701F0913801808188608083E091370112
:10076000F0913801808180688083E0913701F091B9
:10077000380180818F7D808300E010E08EE00E9450
:100780007501BC01CE0107960E94E6011A8219820A
:100790001C821B821E821D82BE01695F7F4FCE01BB
:1007A00001960E94660268E171E0CE0101960E9406
:1007B00030020E948C00CE0101960E949002CE0170
:1007C00007960E9490028FE00E947501BC01CE0145
:1007D00007960E94E6011A8219821C821B821E82E1
:1007E0001D82BE01695F7F4FCE0101960E946602A5
:1007F00068E171E0CE0101960E9430020E948C00F7
:10080000CE0101960E949002CE0107960E949002AE
:1008100080E10E947501BC01CE0107960E94E601AD
:100820001A8219821C821B821E821D82BE01695F90
:100830007F4FCE0101960E9466026AE171E0CE010F
:1008400001960E9430020E948C00CE0101960E9407
:100850009002CE0107960E9490020E9487014B01F0
:100860005C0188EEC82E83E0D82EE12CF12C0E948A
:100870008701681979098A099B09683E73408105D7
:100880009105A8F321E0C21AD108E108F10888EE29
:10089000880E83E0981EA11CB11CC114D104E10490
:1008A000F10429F70115110509F468CF0E94D2005F
:1008B000882309F463CF0E94000060CFE5E2F1E0F5
:1008C0001382128288EE93E0A0E0B0E084839583E7
:1008D000A683B7838AE091E09183808385EC90E0E2
:1008E0009587848784EC90E09787868780EC90E0FA
:1008F000918B808B81EC90E0938B828B82EC90E0EB
:10090000958B848B86EC90E0978B868B118E128E64
:10091000138E148E0895BB274A3031F4992322F4A4
:10092000BDE2909581959F4F0C949704BB27FB01E6
:100930005527AA27880F991FAA1FA41710F0A41BD8
:1009400083955051B9F7A05DAA3308F0A95DA19332
:10095000009779F7B111B1931192CB010C94B004C7
:10096000DC01FC01672F71917723E1F7329704C016
:100970007C916D9370836291AE17BF07C8F30895A1
:100980002F923F924F925F926F927F928F929F929F
:10099000AF92BF92CF92DF92EF92FF920F931F938D
:1009A000CF93DF93CDB7DEB7CA1BDB0B0FB6F8943E
:1009B000DEBF0FBECDBF09942A88398848885F847E
:1009C0006E847D848C849B84AA84B984C884DF80EF
:1009D000EE80FD800C811B81AA81B981CE0FD11DD3
:1009E0000FB6F894DEBF0FBECDBFED010895EE0F38
:1009F000FF1F0590F491E02D09940F931F93CF935F
:100A0000DF938230910510F482E090E0E091C40120
:100A1000F091C50130E020E0B0E0A0E0309799F41B
:100A20002115310509F44AC0281B390B2430310542
:100A3000D8F58A819B816115710589F1FB0193834A
:100A40008283FE0111C040815181028113814817C8
:100A50005907E0F04817590799F4109761F012967A
:100A60000C93129713961C933296CF01DF91CF917E
:100A70001F910F9108950093C4011093C501F4CF05
:100A80002115310551F04217530738F0A901DB0158
:100A90009A01BD01DF01F801C1CFEF01F9CF9093B9
:100AA000C5018093C401CDCFFE01E20FF31F8193F6
:100AB00091932250310939832883D7CF2091C201E5
:100AC0003091C301232B41F42091020130910301A5
:100AD0003093C3012093C2012091000130910101A4
:100AE0002115310541F42DB73EB7409104015091D5
:100AF0000501241B350BE091C201F091C301E217FF
:100B0000F307A0F42E1B3F0B2817390778F0AC0130
:100B10004E5F5F4F2417350748F04E0F5F1F50930D
:100B2000C3014093C201819391939FCFF0E0E0E035
:100B30009CCFCF93DF930097E9F0FC0132971382AB
:100B40001282A091C401B091C501ED0130E020E016
:100B50001097A1F420813181820F931F2091C2014F
:100B60003091C3012817390709F061C0F093C30120
:100B7000E093C201DF91CF910895EA01CE17DF071C
:100B8000E8F54A815B819E0141155105B1F7E90104
:100B9000FB83EA8349915991C40FD51FEC17FD07D8
:100BA00061F4808191810296840F951FE9019983F8
:100BB0008883828193819B838A83F0E0E0E01296B0
:100BC0008D919C9113970097B9F52D913C911197B8
:100BD000CD010296820F931F2091C2013091C30173
:100BE0002817390739F6309751F51092C501109240
:100BF000C401B093C301A093C201BCCFD383C2830D
:100C000040815181840F951FC817D90761F44E5F49
:100C10005F4F88819981480F591F518340838A8192
:100C20009B81938382832115310509F0B0CFF09326
:100C3000C501E093C4019ECFFD01DC01C0CF13824A
:100C40001282D7CFB0E0A0E0E8E2F6E00C94C20454
:100C50008C01009751F4CB010E94FD048C01C80166
:100C6000CDB7DEB7E0E10C94DE04FC01E60FF71F20
:100C70009C0122503109E217F30708F49DC0D90105
:100C8000CD91DC911197C617D70798F0C530D105E3
:100C900030F3CE0104978617970708F3C61BD70BCE
:100CA0002297C193D1936D937C93CF010E949905B4
:100CB000D6CF5B01AC1ABD0A4C018C0E9D1EA091D3
:100CC000C401B091C501512C412CF12CE12C10979D
:100CD00031F58091C2019091C3018815990509F001
:100CE0005CC04616570608F058C0809100019091EC
:100CF0000101009741F48DB79EB7409104015091D6
:100D00000501841B950BE817F90708F055C0F0930F
:100D1000C301E093C201F90171836083A0CF8D917B
:100D20009C91119712966C90129713967C90139742
:100D3000A815B90559F56C0142E0C40ED11CCA14BE
:100D4000DB0420F1AC014A195B09DA011296159710
:100D500080F06282738251834083D9016D937C93CA
:100D6000E114F10471F0D7011396FC93EE931297FE
:100D700076CF22968C0F9D1FF90191838083F3011A
:100D8000EFCFF093C501E093C40169CF481659062F
:100D900008F42C017D01D3019ACFCB010E94FD0400
:100DA0007C01009749F0AE01B8010E94DF06C8013E
:100DB0000E949905870153CF10E000E050CFFB015E
:100DC000DC0102C001900D9241505040D8F70895C7
:100DD000FB01DC0101900D920020E1F70895F894E9
:020DE000FFCF43
:100DE2000000C60180000000000008015F009500BD
:0C0DF2005501C600A400B8002C00400011
:00000001FF
