:100000000C9462000C948A000C948A000C948A0070
:100010000C948A000C948A000C948A000C948A0038
:100020000C948A000C948A000C948A000C948A0028
:100030000C948A000C948A000C948A000C948A0018
:100040000C9401020C948A000C9471020C944B02E3
:100050000C948A000C948A000C948A000C948A00F8
:100060000C948A000C948A000000000024002700F1
:100070002A0000000000250028002B0000000000DE
:1000800023002600290004040404040404040202DA
:100090000202020203030303030301020408102007
:1000A0004080010204081020010204081020000012
:1000B0000008000201000003040700000000000027
:1000C0000000DF0311241FBECFEFD8E0DEBFCDBF9D
:1000D00021E0A8E1B1E001C01D92A23CB207E1F726
:1000E00011E0A0E0B1E0E4EEFCE002C005900D926A
:1000F000A831B107D9F710E0C2E6D0E004C02197DB
:10010000FE010E947804C136D107C9F70E94A302FC
:100110000C9470060C940000AF92BF92CF92DF92C5
:10012000EF92FF920F931F93CF93DF936C017B01AC
:100130008B01040F151FEB015E01AE18BF08C0173D
:10014000D10759F06991D601ED91FC910190F081B0
:10015000E02DC6010995892B79F7C501DF91CF9173
:100160001F910F91FF90EF90DF90CF90BF90AF90D5
:100170000895FC01538D448D252F30E0842F90E0AD
:10018000821B930B541710F0CF9608950197089592
:10019000FC01918D828D981761F0A28DAE0FBF2F5B
:1001A000B11D5D968C91928D9F5F9F73928F90E0B1
:1001B00008958FEF9FEF0895FC01918D828D981720
:1001C00031F0828DE80FF11D858D90E008958FEF5D
:1001D0009FEF0895FC01918D228D892F90E0805C26
:1001E0009F4F821B91098F739927089588E191E0B1
:1001F0000E94EA0021E0892B09F420E0822F089573
:1002000080E090E0892B29F00E94F60081110C9487
:1002100000000895FC01A48DA80FB92FB11DA35AA9
:10022000BF4F2C91848D90E001968F739927848F16
:10023000A689B7892C93A089B1898C918370806439
:100240008C93938D848D981306C00288F389E02DDA
:1002500080818F7D80830895EF92FF920F931F938B
:10026000CF93DF93EC0181E0888F9B8D8C8D981369
:100270001AC0E889F989808185FF15C09FB7F89475
:10028000EE89FF896083E889F989808183708064C1
:1002900080839FBF81E090E0DF91CF911F910F910C
:1002A000FF90EF900895F62E0B8D10E00F5F1F4F1B
:1002B0000F731127E02E8C8D8E110CC00FB607FC2A
:1002C000FACFE889F989808185FFF5CFCE010E94B8
:1002D0000A01F1CFEB8DEC0FFD2FF11DE35AFF4F1B
:1002E000F0829FB7F8940B8FEA89FB898081806246
:1002F000CFCFCF93DF93EC01888D8823B9F0AA8903
:10030000BB89E889F9898C9185FD03C0808186FDD0
:100310000DC00FB607FCF7CF8C9185FFF2CF80811F
:1003200085FFEDCFCE010E940A01E9CFDF91CF9189
:100330000895833081F028F4813099F08230A9F05B
:1003400008958730A9F08830C9F08430B1F48091E5
:1003500080008F7D03C0809180008F778093800024
:10036000089584B58F7784BD089584B58F7DFBCFC4
:100370008091B0008F778093B00008958091B00095
:100380008F7DF9CFEF92FF920F931F93CF93DF935F
:10039000EC017B018A0188819981009729F02A81EB
:1003A0003B812417350788F4B8016F5F7F4F0E94A7
:1003B000A305009791F0998388831B830A832C817E
:1003C0003D81232B11F4FC0110821D830C83B701A6
:1003D000888199810E9469060CC088819981009763
:1003E00011F00E941A05198218821D821C821B823C
:1003F0001A82CE01DF91CF911F910F91FF90EF9064
:1004000008951F920F920FB60F9211242F933F93CE
:100410008F939F93AF93BF938091BA019091BB014B
:10042000A091BC01B091BD013091B90123E0230F2F
:100430002D3758F50196A11DB11D2093B901809368
:10044000BA019093BB01A093BC01B093BD01809110
:10045000B5019091B601A091B701B091B801019694
:10046000A11DB11D8093B5019093B601A093B70172
:10047000B093B801BF91AF919F918F913F912F9110
:100480000F900FBE0F901F90189526E8230F02962D
:10049000A11DB11DD2CF1F920F920FB60F92112442
:1004A0002F933F934F935F936F937F938F939F937C
:1004B000AF93BF93EF93FF9388E191E00E940A010D
:1004C000FF91EF91BF91AF919F918F917F916F912C
:1004D0005F914F913F912F910F900FBE0F901F9002
:1004E00018951F920F920FB60F9211242F938F938E
:1004F0009F93EF93FF93E0912801F0912901808170
:10050000E0912E01F0912F0182FD1BC0908180911E
:1005100031018F5F8F7320913201821741F0E0919A
:100520003101F0E0E85EFE4F958F80933101FF913D
:10053000EF919F918F912F910F900FBE0F901F9071
:1005400018958081F4CFCF93DF93CDB7DEB768974E
:100550000FB6F894DEBF0FBECDBF789484B582602D
:1005600084BD84B5816084BD85B5826085BD85B557
:10057000816085BD80916E00816080936E001092D5
:100580008100809181008260809381008091810050
:1005900081608093810080918000816080938000E1
:1005A0008091B10084608093B1008091B00081603F
:1005B0008093B00080917A00846080937A0080916B
:1005C0007A00826080937A0080917A0081608093C3
:1005D0007A0080917A00806880937A001092C1003E
:1005E000E0912801F091290182E08083E0912401CB
:1005F000F09125011082E0912601F09127018FEC06
:10060000808310923001E0912C01F0912D0186E061
:100610008083E0912A01F0912B01808180618083A9
:10062000E0912A01F0912B01808188608083E09124
:100630002A01F0912B01808180688083E0912A015A
:10064000F0912B0180818F7D80834CE9E42E40E086
:10065000F42EF701249108E810E0F8018491882332
:10066000C9F090E0880F991FFC01E859FF4FA59150
:10067000B491FC01EE58FF4F459154913FB7F89467
:100680009C91822F809598239C93FA0190818923D5
:1006900080833FBF20EBC22E20E0D22EF601849152
:1006A000F701A490F801B490BB2089F081110E9459
:1006B0009901EB2DF0E0EE0FFF1FEE58FF4FA591D3
:1006C000B4918FB7F8949C91A92AAC928FBFF60190
:1006D0008491F701E490F8010491002309F46CC0BF
:1006E00081110E949901E02FF0E0EE0FFF1FE45806
:1006F000FF4FA591B4918C91E82281E090E009F43C
:1007000080E01C8A1B8A1E8A1D8A188E1F8A4AE076
:100710008E010F5F1F4FB8010E940C04F801019079
:100720000020E9F73197AF01401B510BB801CE0112
:1007300043960E94C2014F89588D6B897C8988E15C
:1007400091E00E948C008B899C89009711F00E9497
:100750001A051C8A1B8A1E8A1D8A188E1F8A4AE067
:10076000B80187E190E00E941704F8010190002091
:10077000E9F73197AF01401B510BB801CE01439609
:100780000E94C2014F89588D6B897C8988E191E074
:100790000E948C008B899C89009711F00E941A0599
:1007A00000E010E001151105E9F30E94F60088232E
:1007B000C9F30E940000F6CF80E090E0A2CFE8E10C
:1007C000F1E01382128288EE93E0A0E0B0E084832F
:1007D0009583A683B7838AE091E09183808385EC3B
:1007E00090E09587848784EC90E09787868780ECFB
:1007F00090E0918B808B81EC90E0938B828B82ECEC
:1008000090E0958B848B86EC90E0978B868B118E95
:10081000128E138E148E0895BB274A3031F499231B
:1008200022F4BDE2909581959F4F0C941804BB274C
:10083000FB015527AA27880F991FAA1FA41710F09C
:10084000A41B83955051B9F7A05DAA3308F0A95DA8
:10085000A193009779F7B111B1931192CB010C9448
:100860003104DC01FC01672F71917723E1F73297A6
:1008700004C07C916D9370836291AE17BF07C8F37B
:1008800008952F923F924F925F926F927F928F9234
:100890009F92AF92BF92CF92DF92EF92FF920F930F
:1008A0001F93CF93DF93CDB7DEB7CA1BDB0B0FB619
:1008B000F894DEBF0FBECDBF09942A8839884888D6
:1008C0005F846E847D848C849B84AA84B984C8846C
:1008D000DF80EE80FD800C811B81AA81B981CE0F63
:1008E000D11D0FB6F894DEBF0FBECDBFED01089548
:1008F000EE0FFF1F0590F491E02D09940F931F93C5
:10090000CF93DF938230910510F482E090E0E09184
:10091000C001F091C10130E020E0B0E0A0E03097EC
:1009200099F42115310509F44AC0281B390B2430EC
:100930003105D8F58A819B816115710589F1FB012B
:1009400093838283FE0111C0408151810281138112
:1009500048175907E0F04817590799F4109761F0C4
:1009600012960C93129713961C933296CF01DF9137
:10097000CF911F910F9108950093C0011093C10171
:10098000F4CF2115310551F04217530738F0A90172
:10099000DB019A01BD01DF01F801C1CFEF01F9CF01
:1009A0009093C1018093C001CDCFFE01E20FF31FF0
:1009B000819391932250310939832883D7CF209195
:1009C000BE013091BF01232B41F4209102013091EF
:1009D00003013093BF012093BE01209100013091AB
:1009E00001012115310541F42DB73EB740910401B5
:1009F00050910501241B350BE091BE01F091BF0120
:100A0000E217F307A0F42E1B3F0B2817390778F0E5
:100A1000AC014E5F5F4F2417350748F04E0F5F1F44
:100A20005093BF014093BE01819391939FCFF0E01B
:100A3000E0E09CCFCF93DF930097E9F0FC01329781
:100A400013821282A091C001B091C101ED0130E08A
:100A500020E01097A1F420813181820F931F209113
:100A6000BE013091BF012817390709F061C0F0932A
:100A7000BF01E093BE01DF91CF910895EA01CE1747
:100A8000DF07E8F54A815B819E0141155105B1F709
:100A9000E901FB83EA8349915991C40FD51FEC17F3
:100AA000FD0761F4808191810296840F951FE90111
:100AB00099838883828193819B838A83F0E0E0E03D
:100AC00012968D919C9113970097B9F52D913C91B9
:100AD0001197CD010296820F931F2091BE01309194
:100AE000BF012817390739F6309751F51092C10127
:100AF0001092C001B093BF01A093BE01BCCFD383BD
:100B0000C28340815181840F951FC817D90761F4B2
:100B10004E5F5F4F88819981480F591F51834083F1
:100B20008A819B81938382832115310509F0B0CF9F
:100B3000F093C101E093C0019ECFFD01DC01C0CF65
:100B400013821282D7CFB0E0A0E0E9EAF5E00C947E
:100B500043048C01009751F4CB010E947E048C0168
:100B6000C801CDB7DEB7E0E10C945F04FC01E60FED
:100B7000F71F9C0122503109E217F30708F49DC0CA
:100B8000D901CD91DC911197C617D70798F0C530E0
:100B9000D10530F3CE0104978617970708F3C61BDB
:100BA000D70B2297C193D1936D937C93CF010E9471
:100BB0001A05D6CF5B01AC1ABD0A4C018C0E9D1EE6
:100BC000A091C001B091C101512C412CF12CE12C1C
:100BD000109731F58091BE019091BF01881599055C
:100BE00009F05CC04616570608F058C08091000115
:100BF00090910101009741F48DB79EB74091040197
:100C000050910501841B950BE817F90708F055C0B2
:100C1000F093BF01E093BE01F90171836083A0CF1F
:100C20008D919C91119712966C90129713967C90CF
:100C30001397A815B90559F56C0142E0C40ED11CF3
:100C4000CA14DB0420F1AC014A195B09DA011296DF
:100C5000159780F06282738251834083D9016D932E
:100C60007C93E114F10471F0D7011396FC93EE9399
:100C7000129776CF22968C0F9D1FF9019183808366
:100C8000F301EFCFF093C101E093C00169CF4816A3
:100C9000590608F42C017D01D3019ACFCB010E94A3
:100CA0007E047C01009749F0AE01B8010E94600605
:100CB000C8010E941A05870153CF10E000E050CF11
:100CC000FB01DC0102C001900D9241505040D8F769
:100CD0000895FB01DC0101900D920020E1F70895D9
:040CE000F894FFCFB6
:100CE4000000C2018000000000002C018C00B9004B
:080CF4007901EA00C800DC00F0
:00000001FF
