:100000000C9435000C945D000C945D000C945D0024
:100010000C945D000C945D000C945D000C945D00EC
:100020000C945D000C945D000C945D000C945D00DC
:100030000C945D000C945D000C945D000C945D00CC
:100040000C946C010C945D000C94DC010C94B601D2
:100050000C945D000C945D000C945D000C945D00AC
:100060000C945D000C945D00100311241FBECFEFB3
:10007000D8E0DEBFCDBF21E0ACE1B1E001C01D9210
:10008000A63CB207E1F711E0A0E0B1E0E6E4FBE056
:1000900002C005900D92AC31B107D9F710E0C5E36D
:1000A000D0E004C02197FE010E94A903C433D10708
:1000B000C9F70E940E020C94A1050C940000AF92A7
:1000C000BF92CF92DF92EF92FF920F931F93CF9345
:1000D000DF936C017B018B01040F151FEB015E01A7
:1000E000AE18BF08C017D10759F06991D601ED913C
:1000F000FC910190F081E02DC6010995892B79F7DB
:10010000C501DF91CF911F910F91FF90EF90DF908C
:10011000CF90BF90AF900895FC01538D448D252F53
:1001200030E0842F90E0821B930B541710F0CF9691
:10013000089501970895FC01918D828D981761F0C3
:10014000A28DAE0FBF2FB11D5D968C91928D9F5FDA
:100150009F73928F90E008958FEF9FEF0895FC01B9
:10016000918D828D981731F0828DE80FF11D858D6C
:1001700090E008958FEF9FEF0895FC01918D228DFF
:10018000892F90E0805C9F4F821B91098F73992784
:1001900008958CE191E00E94BD0021E0892B09F4D3
:1001A00020E0822F089580E090E0892B29F00E94C2
:1001B000C90081110C9400000895FC01A48DA80FC2
:1001C000B92FB11DA35ABF4F2C91848D90E0019699
:1001D0008F739927848FA689B7892C93A089B189B9
:1001E0008C91837080648C93938D848D981306C05A
:1001F0000288F389E02D80818F7D80830895EF92BE
:10020000FF920F931F93CF93DF93EC0181E0888FD0
:100210009B8D8C8D98131AC0E889F989808185FFA0
:1002200015C09FB7F894EE89FF896083E889F98942
:1002300080818370806480839FBF81E090E0DF9144
:10024000CF911F910F91FF90EF900895F62E0B8D97
:1002500010E00F5F1F4F0F731127E02E8C8D8E1152
:100260000CC00FB607FCFACFE889F989808185FFB9
:10027000F5CFCE010E94DD00F1CFEB8DEC0FFD2F0D
:10028000F11DE35AFF4FF0829FB7F8940B8FEA8974
:10029000FB8980818062CFCFCF93DF93EC01888D83
:1002A0008823B9F0AA89BB89E889F9898C9185FDF1
:1002B00003C0808186FD0DC00FB607FCF7CF8C917F
:1002C00085FFF2CF808185FFEDCFCE010E94DD005A
:1002D000E9CFDF91CF9108951F920F920FB60F9241
:1002E00011242F933F938F939F93AF93BF9380914C
:1002F000BE019091BF01A091C001B091C1013091A8
:10030000BD0123E0230F2D3758F50196A11DB11D26
:100310002093BD018093BE019093BF01A093C001C3
:10032000B093C1018091B9019091BA01A091BB0134
:10033000B091BC010196A11DB11D8093B9019093AC
:10034000BA01A093BB01B093BC01BF91AF919F9143
:100350008F913F912F910F900FBE0F901F90189586
:1003600026E8230F0296A11DB11DD2CF1F920F9236
:100370000FB60F9211242F933F934F935F936F9378
:100380007F938F939F93AF93BF93EF93FF938CE1F2
:1003900091E00E94DD00FF91EF91BF91AF919F919D
:1003A0008F917F916F915F914F913F912F910F901E
:1003B0000FBE0F901F9018951F920F920FB60F92BD
:1003C00011242F938F939F93EF93FF93E0912C0130
:1003D000F0912D018081E0913201F091330182FD95
:1003E0001BC09081809135018F5F8F732091360102
:1003F000821741F0E0913501F0E0E45EFE4F958F09
:1004000080933501FF91EF919F918F912F910F90E4
:100410000FBE0F901F9018958081F4CFCF93DF937C
:10042000CDB7DEB762970FB6F894DEBF0FBECDBF73
:10043000789484B5826084BD84B5816084BD85B5BF
:10044000826085BD85B5816085BD80916E008160CB
:1004500080936E0010928100809181008260809371
:100460008100809181008160809381008091800073
:100470008160809380008091B10084608093B1009E
:100480008091B00081608093B00080917A00846098
:1004900080937A0080917A00826080937A008091C4
:1004A0007A00816080937A0080917A0080688093DE
:1004B0007A001092C100E0912C01F0912D0182E0B0
:1004C0008083E0912801F09129011082E0912A01B6
:1004D000F0912B018FEC808310923401E091300178
:1004E000F091310186E08083E0912E01F0912F019F
:1004F000808180618083E0912E01F0912F018081C5
:1005000088608083E0912E01F0912F0180818068C6
:100510008083E0912E01F0912F0180818F7D808377
:100520008AE0B82ECE0101967C0190E0C92E90E0C1
:10053000D92E8CE191E00E94BD00181619060CF02E
:1005400060C08CE191E00E94BD0018161906CCF73E
:100550008CE191E00E949B0090ED980F9A3088F713
:10056000082F880F110B005311098CE191E00E94B4
:10057000BD0018161906CCF78CE191E00E949B0093
:1005800090ED980F9A3068F4B09E9001B19E300DB6
:100590001124082F880F110B00531109020F131F8C
:1005A000E4CF4AE0B701C8010E943D03F701019082
:1005B0000020E9F731974F018E189F08B4016F5F53
:1005C0007F4F90E080E00E94D4048C01009729F1D5
:1005D000FC011082B7010E949A05A401B8018CE1C8
:1005E00091E00E945F0042E050E068E171E08CE140
:1005F00091E00E945F000115110519F0C8010E94E9
:100600004B04C114D10409F494CF0E94C90088237B
:1006100009F48FCF0E9400008CCF912C812CDDCF6C
:10062000ECE1F1E01382128288EE93E0A0E0B0E00A
:1006300084839583A683B7838AE091E09183808346
:1006400085EC90E09587848784EC90E09787868797
:1006500080EC90E0918B808B81EC90E0938B828B8F
:1006600082EC90E0958B848B86EC90E0978B868B68
:10067000118E128E138E148E0895BB274A3031F4DA
:10068000992322F4BDE2909581959F4F0C944903E4
:10069000BB27FB015527AA27880F991FAA1FA4175C
:1006A00010F0A41B83955051B9F7A05DAA3308F050
:1006B000A95DA193009779F7B111B1931192CB0184
:1006C0000C946203DC01FC01672F71917723E1F741
:1006D000329704C07C916D9370836291AE17BF070F
:1006E000C8F308952F923F924F925F926F927F923C
:1006F0008F929F92AF92BF92CF92DF92EF92FF9232
:100700000F931F93CF93DF93CDB7DEB7CA1BDB0BDD
:100710000FB6F894DEBF0FBECDBF09942A88398882
:1007200048885F846E847D848C849B84AA84B98489
:10073000C884DF80EE80FD800C811B81AA81B98195
:10074000CE0FD11D0FB6F894DEBF0FBECDBFED01A9
:100750000895EE0FFF1F0590F491E02D09940F937B
:100760001F93CF93DF938230910510F482E090E0E5
:10077000E091C401F091C50130E020E0B0E0A0E0DC
:10078000309799F42115310509F44AC0281B390B1B
:1007900024303105D8F58A819B816115710589F175
:1007A000FB0193838283FE0111C04081518102814C
:1007B000138148175907E0F04817590799F4109723
:1007C00061F012960C93129713961C933296CF01F8
:1007D000DF91CF911F910F9108950093C401109361
:1007E000C501F4CF2115310551F04217530738F0F8
:1007F000A901DB019A01BD01DF01F801C1CFEF01C1
:10080000F9CF9093C5018093C401CDCFFE01E20FD3
:10081000F31F819391932250310939832883D7CFD5
:100820002091C2013091C301232B41F42091020198
:10083000309103013093C3012093C2012091000144
:10084000309101012115310541F42DB73EB740919A
:10085000040150910501241B350BE091C201F09178
:10086000C301E217F307A0F42E1B3F0B281739072B
:1008700078F0AC014E5F5F4F2417350748F04E0FFC
:100880005F1F5093C3014093C201819391939FCF07
:10089000F0E0E0E09CCFCF93DF930097E9F0FC011C
:1008A000329713821282A091C401B091C501ED016B
:1008B00030E020E01097A1F420813181820F931F56
:1008C0002091C2013091C3012817390709F061C096
:1008D000F093C301E093C201DF91CF910895EA0143
:1008E000CE17DF07E8F54A815B819E01411551056E
:1008F000B1F7E901FB83EA8349915991C40FD51FF0
:10090000EC17FD0761F4808191810296840F951F99
:10091000E90199838883828193819B838A83F0E0B4
:10092000E0E012968D919C9113970097B9F52D9167
:100930003C911197CD010296820F931F2091C20125
:100940003091C3012817390739F6309751F51092C5
:10095000C5011092C401B093C301A093C201BCCFE2
:10096000D383C28340815181840F951FC817D90753
:1009700061F44E5F5F4F88819981480F591F518301
:1009800040838A819B81938382832115310509F0FD
:10099000B0CFF093C501E093C4019ECFFD01DC010F
:1009A000C0CF13821282D7CFB0E0A0E0EAEDF4E02E
:1009B0000C9474038C01009751F4CB010E94AF0397
:1009C0008C01C801CDB7DEB7E0E10C949003FC01C7
:1009D000E60FF71F9C0122503109E217F30708F4D4
:1009E0009DC0D901CD91DC911197C617D70798F01A
:1009F000C530D10530F3CE0104978617970708F369
:100A0000C61BD70B2297C193D1936D937C93CF01D3
:100A10000E944B04D6CF5B01AC1ABD0A4C018C0E70
:100A20009D1EA091C401B091C501512C412CF12C07
:100A3000E12C109731F58091C2019091C301881586
:100A4000990509F05CC04616570608F058C0809119
:100A5000000190910101009741F48DB79EB740913C
:100A6000040150910501841B950BE817F90708F064
:100A700055C0F093C301E093C201F9017183608313
:100A8000A0CF8D919C91119712966C90129713960E
:100A90007C901397A815B90559F56C0142E0C40E76
:100AA000D11CCA14DB0420F1AC014A195B09DA013C
:100AB0001296159780F06282738251834083D90128
:100AC0006D937C93E114F10471F0D7011396FC93BC
:100AD000EE93129776CF22968C0F9D1FF90191838A
:100AE0008083F301EFCFF093C501E093C40169CF98
:100AF0004816590608F42C017D01D3019ACFCB0189
:100B00000E94AF037C01009749F0AE01B8010E943A
:100B10009105C8010E944B04870153CF10E000E00B
:100B200050CFFB01DC0102C001900D9241505040BA
:100B3000D8F70895FB01DC0101900D920020E1F748
:060B40000895F894FFCFB8
:100B46000000C601800000000000FF005F008C006E
:0C0B56004C01BD009B00AF000D0A000028
:00000001FF
