:100000000C9435000C945D000C945D000C945D0024
:100010000C945D000C945D000C945D000C945D00EC
:100020000C945D000C945D000C945D000C945D00DC
:100030000C945D000C945D000C945D000C945D00CC
:100040000C940F020C945D000C947F020C945902E6
:100050000C945D000C945D000C945D000C945D00AC
:100060000C945D000C945D007A0411241FBECFEF48
:10007000D8E0DEBFCDBF21E0AEE2B1E001C01D920D
:10008000A83DB207E1F711E0A0E0B1E0EAE1FEE04F
:1000900002C005900D92AE32B107D9F710E0C5E36A
:1000A000D0E004C02197FE010E941305C433D1079C
:1000B000C9F70E94B1020C940B070C940000AF9298
:1000C000BF92CF92DF92EF92FF920F931F93CF9345
:1000D000DF936C017B018B01040F151FEB015E01A7
:1000E000AE18BF08C017D10759F06991D601ED913C
:1000F000FC910190F081E02DC6010995892B79F7DB
:10010000C501DF91CF911F910F91FF90EF90DF908C
:10011000CF90BF90AF90089542E050E068E171E069
:1001200087E391E00C945F00FC01538D448D252FF3
:1001300030E0842F90E0821B930B541710F0CF9681
:10014000089501970895FC01918D828D981761F0B3
:10015000A28DAE0FBF2FB11D5D968C91928D9F5FCA
:100160009F73928F90E008958FEF9FEF08952FB7C0
:10017000F8948091330190913401A0913501B091B0
:1001800036012FBF80933F0190934001A09341011E
:10019000B093420187E391E00E94A30097FF26C03D
:1001A0002FB7F8948091330190913401A0913501DB
:1001B000B09136012FBF40913F01509140016091B5
:1001C000410170914201841B950BA60BB70B409126
:1001D0003B0150913C0160913D0170913E018417BB
:1001E0009507A607B707B0F28FEF9FEF0895FC01C0
:1001F000918D828D981731F0828DE80FF11D858DDC
:1002000090E008958FEF9FEF0895FC01918D228D6E
:10021000892F90E0805C9F4F821B91098F739927F3
:10022000089587E391E00E94050121E0892B09F4FC
:1002300020E0822F089580E090E0892B29F00E9431
:10024000110181110C9400000895FC01A48DA80FE8
:10025000B92FB11DA35ABF4F2C91848D90E0019608
:100260008F739927848FA689B7892C93A089B18928
:100270008C91837080648C93938D848D981306C0C9
:100280000288F389E02D80818F7D80830895EF922D
:10029000FF920F931F93CF93DF93EC0181E0888F40
:1002A0009B8D8C8D98131AC0E889F989808185FF10
:1002B00015C09FB7F894EE89FF896083E889F989B2
:1002C00080818370806480839FBF81E090E0DF91B4
:1002D000CF911F910F91FF90EF900895F62E0B8D07
:1002E00010E00F5F1F4F0F731127E02E8C8D8E11C2
:1002F0000CC00FB607FCFACFE889F989808185FF29
:10030000F5CFCE010E942501F1CFEB8DEC0FFD2F33
:10031000F11DE35AFF4FF0829FB7F8940B8FEA89E3
:10032000FB8980818062CFCFCF93DF93EC01888DF2
:100330008823B9F0AA89BB89E889F9898C9185FD60
:1003400003C0808186FD0DC00FB607FCF7CF8C91EE
:1003500085FFF2CF808185FFEDCFCE010E94250180
:10036000E9CFDF91CF910895FC01808191810097C1
:1003700011F00C94B50508950F931F93CF93DF935D
:10038000EC0188819981009759F02A813B812617D9
:10039000370730F081E0DF91CF911F910F910895E1
:1003A0008B016F5F7F4F0E943E06009759F0998343
:1003B00088831B830A832C813D81232B59F7FC0101
:1003C0001082E8CF80E0E7CFEF92FF920F931F9368
:1003D000CF93DF93EC017B018A01BA010E94BC013B
:1003E00028813981811114C02115310519F0C90105
:1003F0000E94B505198218821D821C821B821A82F6
:10040000CE01DF91CF911F910F91FF90EF90089552
:100410001D830C83B701C9010E940407F1CF1F920D
:100420000F920FB60F9211242F933F938F939F93A8
:10043000AF93BF938091330190913401A091350126
:10044000B09136013091320123E0230F2D3758F55A
:100450000196A11DB11D2093320180933301909329
:100460003401A0933501B093360180912E01909113
:100470002F01A0913001B09131010196A11DB11D54
:1004800080932E0190932F01A0933001B0933101FE
:10049000BF91AF919F918F913F912F910F900FBE80
:1004A0000F901F90189526E8230F0296A11DB11DED
:1004B000D2CF1F920F920FB60F9211242F933F931A
:1004C0004F935F936F937F938F939F93AF93BF935C
:1004D000EF93FF9387E391E00E942501FF91EF9155
:1004E000BF91AF919F918F917F916F915F914F914C
:1004F0003F912F910F900FBE0F901F9018951F9254
:100500000F920FB60F9211242F938F939F93EF9317
:10051000FF93E0914701F09148018081E0914D0106
:10052000F0914E0182FD1BC09081809150018F5F40
:100530008F7320915101821741F0E0915001F0E05A
:10054000E95CFE4F958F80935001FF91EF919F9151
:100550008F912F910F900FBE0F901F901895808153
:10056000F4CFCF93DF93CDB7DEB76C970FB6F89487
:10057000DEBF0FBECDBF789484B5826084BD84B5E4
:10058000816084BD85B5826085BD85B5816085BD8E
:1005900080916E00816080936E0010928100809146
:1005A00081008260809381008091810081608093CE
:1005B0008100809180008160809380008091B100F3
:1005C00084608093B1008091B00081608093B0001E
:1005D00080917A00846080937A0080917A008260B2
:1005E00080937A0080917A00816080937A00809174
:1005F0007A00806880937A001092C100E0914701F0
:10060000F091480182E08083E0914301F091440140
:100610001082E0914501F09146018FEC80831092A9
:100620004F01E0914B01F0914C0186E08083E09115
:100630004901F0914A01808180618083E091490104
:10064000F0914A01808188608083E0914901F091B6
:100650004A01808180688083E0914901F0914A01DC
:1006600080818F7D80839E012B5F3F4F3A8F298F42
:100670008E010F5F1F4F3E013DE0630E711C9FE135
:10068000492E91E0592E87E391E00E94050118164A
:1006900019060CF022C188E0A98DBA8D1D928A95A9
:1006A000E9F7EBE1F1E0FA83E98323E030E03C8312
:1006B0002B8358864F8242E050E05A8749870E9438
:1006C000B70097FDEFC0F801A080B180248135818B
:1006D000D501A20FB31FBC8FAB8F4C91042E000C21
:1006E000550B8417950709F0A0C02F5F3F4F358346
:1006F0002483428153812417350709F09BC0E01BF6
:10070000F10BF595E7958BEA9AEAE89F9001E99F4E
:10071000300DF89F300D11241C8A1B8A1E8A1D8AF9
:10072000188E1F8A81E090E0232B11F090E080E08A
:100730004AE0B8010E94A704F80101900020E9F7FF
:100740003197AF01401B510BB801CE0143960E9477
:10075000E4011A8219821C821B821E821D824AE0D9
:1007600050E062E271E0C8010E94E401CB88DC88BD
:10077000C114D10409F499C0EF88F88CE114F10494
:10078000B1F08D819E81E80EF91EB701C8010E946B
:10079000BC01882309F489C029813A818D819E8119
:1007A000B601820F931F0E940407FE82ED824D81E5
:1007B0005E8169817A8187E391E00E945F000E94F7
:1007C0008C00C8010E94B401CE0143960E94B4017E
:1007D0001A8219821C821B821E821D8250E040E018
:1007E0006AE171E0C8010E94E4010E94B7004D81F6
:1007F0005E8197FD67C08B8B1C8A7A01BFEFEB1A75
:10080000FB0AB701C8010E94BC01882371F329814A
:100810003A818D819E81BE016D5E7F4F820F931F55
:100820000E940407FE82ED82E0CF8B8C9C8C211508
:100830003105F1F43696E615F70509F045CF3FCFBF
:100840006501EB8CFC8CE41AF50A70E060E0D601DF
:100850002D906D01D7013D907D01231005C06F5F84
:100860007F4F6417750798F34617570791F09A0161
:10087000A90141505109D4016E914D01062E000C81
:10088000770B8617970741F441155105C9F621E00A
:1008900030E035832483CECF4115510541F71582D1
:1008A0001482C8CF2FEF3FEF37CF89819A8100970D
:1008B00011F00E94B5051A8219821E821D821C82C7
:1008C0001B8275CF69817A8187E391E00E945F0086
:1008D0000E948C00C8010E94B40180E090E0892B46
:1008E00009F4D1CE0E941101882309F4C8CE0E94D8
:1008F0000000C5CEE7E3F1E01382128288EE93E0B8
:10090000A0E0B0E084839583A683B7838AE091E07A
:100910009183808385EC90E09587848784EC90E0D8
:100920009787868780EC90E0918B808B81EC90E0BC
:10093000938B828B82EC90E0958B848B86EC90E09D
:10094000978B868B118E128E138E148E0895BB2773
:100950004A3031F4992322F4BDE2909581959F4F5E
:100960000C94B304BB27FB015527AA27880F991FB6
:10097000AA1FA41710F0A41B83955051B9F7A05DCE
:10098000AA3308F0A95DA193009779F7B111B1934B
:100990001192CB010C94CC04DC01FC01672F719106
:1009A0007723E1F7329704C07C916D937083629155
:1009B000AE17BF07C8F308952F923F924F925F92F0
:1009C0006F927F928F929F92AF92BF92CF92DF925F
:1009D000EF92FF920F931F93CF93DF93CDB7DEB7C4
:1009E000CA1BDB0B0FB6F894DEBF0FBECDBF099458
:1009F0002A88398848885F846E847D848C849B84AF
:100A0000AA84B984C884DF80EE80FD800C811B81BC
:100A1000AA81B981CE0FD11D0FB6F894DEBF0FBEEB
:100A2000CDBFED010895EE0FFF1F0590F491E02D6D
:100A300009940F931F93CF93DF938230910510F4A5
:100A400082E090E0E091D601F091D70130E020E023
:100A5000B0E0A0E0309799F42115310509F44AC0BF
:100A6000281B390B24303105D8F58A819B8161150B
:100A7000710589F1FB0193838283FE0111C04081DE
:100A800051810281138148175907E0F0481759072F
:100A900099F4109761F012960C93129713961C9389
:100AA0003296CF01DF91CF911F910F91089500935E
:100AB000D6011093D701F4CF2115310551F042171B
:100AC000530738F0A901DB019A01BD01DF01F801EC
:100AD000C1CFEF01F9CF9093D7018093D601CDCF4D
:100AE000FE01E20FF31F8193919322503109398364
:100AF0002883D7CF2091D4013091D501232B41F405
:100B000020910201309103013093D5012093D4014B
:100B100020910001309101012115310541F42DB7DB
:100B20003EB74091040150910501241B350BE09123
:100B3000D401F091D501E217F307A0F42E1B3F0B6F
:100B40002817390778F0AC014E5F5F4F241735073F
:100B500048F04E0F5F1F5093D5014093D40181930D
:100B600091939FCFF0E0E0E09CCFCF93DF9300978D
:100B7000E9F0FC01329713821282A091D601B09164
:100B8000D701ED0130E020E01097A1F42081318100
:100B9000820F931F2091D4013091D5012817390776
:100BA00009F061C0F093D501E093D401DF91CF91BA
:100BB0000895EA01CE17DF07E8F54A815B819E01BF
:100BC00041155105B1F7E901FB83EA834991599138
:100BD000C40FD51FEC17FD0761F480819181029647
:100BE000840F951FE90199838883828193819B8378
:100BF0008A83F0E0E0E012968D919C911397009724
:100C0000B9F52D913C911197CD010296820F931F5A
:100C10002091D4013091D5012817390739F6309742
:100C200051F51092D7011092D601B093D501A0933F
:100C3000D401BCCFD383C28340815181840F951FDF
:100C4000C817D90761F44E5F5F4F88819981480FBB
:100C5000591F518340838A819B819383828321150D
:100C6000310509F0B0CFF093D701E093D6019ECFC4
:100C7000FD01DC01C0CF13821282D7CFB0E0A0E02B
:100C8000E4E4F6E00C94DE048C01009751F4CB010F
:100C90000E9419058C01C801CDB7DEB7E0E10C94C4
:100CA000FA04FC01E60FF71F9C0122503109E217FC
:100CB000F30708F49DC0D901CD91DC911197C617B7
:100CC000D70798F0C530D10530F3CE0104978617C9
:100CD000970708F3C61BD70B2297C193D1936D9347
:100CE0007C93CF010E94B505D6CF5B01AC1ABD0A3B
:100CF0004C018C0E9D1EA091D601B091D701512CB4
:100D0000412CF12CE12C109731F58091D401909178
:100D1000D5018815990509F05CC04616570608F0FC
:100D200058C08091000190910101009741F48DB766
:100D30009EB74091040150910501841B950BE81763
:100D4000F90708F055C0F093D501E093D401F901FB
:100D500071836083A0CF8D919C91119712966C90B6
:100D6000129713967C901397A815B90559F56C0145
:100D700042E0C40ED11CCA14DB0420F1AC014A19B4
:100D80005B09DA011296159780F0628273825183B3
:100D90004083D9016D937C93E114F10471F0D70184
:100DA0001396FC93EE93129776CF22968C0F9D1F8D
:100DB000F90191838083F301EFCFF093D701E093A2
:100DC000D60169CF4816590608F42C017D01D301DC
:100DD0009ACFCB010E9419057C01009749F0AE0122
:100DE000B8010E94FB06C8010E94B505870153CFD8
:100DF00010E000E050CFFB01DC0102C001900D9239
:100E000041505040D8F70895FB01DC0101900D924C
:0A0E10000020E1F70895F894FFCFE9
:100E1A000000D80180000000000047015F00940034
:100E2A0094010501A300F7000D0A006162630064E2
:0E0E3A00650066696E64206162633A20000004
:00000001FF
