:100000000C945C000C94CD010C94A6010C94790026
:100010000C9479000C9479000C9479000C9479007C
:100020000C9479000C9479000C9479000C9479006C
:100030000C9479000C9479000C9479000C9479005C
:100040000C945C010C9479000C9479000C94790068
:100050000C9479000C9479000C9479000C9479003C
:100060000C9479000C947900000000002400270013
:100070002A0000000000250028002B0004040404CE
:100080000404040402020202020203030303030342
:10009000010204081020408001020408102001021F
:1000A00004081020000000080002010000030407FB
:1000B000000000000000000011241FBECFEFD8E0B8
:1000C000DEBFCDBF11E0A0E0B1E0E6E1F5E002C0A7
:1000D00005900D92A430B107D9F721E0A4E0B1E07A
:1000E00001C01D92AD30B207E1F70E94F4010C94FB
:1000F00089020C94000090E0FC01EC55FF4F249124
:10010000FC01E057FF4F3491FC01E458FF4FE491AC
:10011000EE23C9F0222339F0233001F1A8F4213075
:1001200019F1223029F1F0E0EE0FFF1FEE58FF4FDA
:10013000A591B4918FB7F894EC91611126C03095D8
:100140003E233C938FBF08952730A9F02830C9F093
:10015000243049F7809180008F7D03C0809180001A
:100160008F7780938000DFCF84B58F7784BDDBCF1E
:1001700084B58F7DFBCF8091B0008F778093B000E6
:10018000D2CF8091B0008F7DF9CF3E2BDACF61E0E6
:1001900087E00C947B0061E088E00C947B00CF93B7
:1001A000DF9390E0FC01E057FF4F249184589F4F6C
:1001B000FC0184918823D1F090E0880F991FFC0105
:1001C000E859FF4FA591B491FC01EE58FF4FC5913E
:1001D000D491623071F49FB7F8943C91822F80954E
:1001E00083238C93E8812E2B28839FBFDF91CF91AF
:1001F00008958FB7F894EC912E2B2C938FBFF6CFE8
:100200003FB7F8948091090190910A01A0910B01E8
:10021000B0910C0126B5A89B05C02F3F19F001969F
:10022000A11DB11D3FBFBA2FA92F982F8827BC0150
:10023000CD01620F711D811D911D42E0660F771F78
:10024000881F991F4A95D1F708958F929F92AF9278
:10025000BF92CF92DF92EF92FF920E9400014B017A
:100260005C0188EBC82E8BE0D82EE12CF12C0E948B
:100270000001681979098A099B09683E7340810564
:100280009105A8F321E0C21AD108E108F10888EE2F
:10029000880E83E0981EA11CB11CC114D104E10496
:1002A000F10429F7FF90EF90DF90CF90BF90AF90CF
:1002B0009F908F90089508951F920F920FB60F92FE
:1002C00011242F933F938F939F93AF93BF9380916C
:1002D000050190910601A0910701B09108013091AC
:1002E000040123E0230F2D3758F50196A11DB11D00
:1002F000209304018093050190930601A0930701C8
:10030000B09308018091090190910A01A0910B011D
:10031000B0910C010196A11DB11D8093090190932C
:100320000A01A0930B01B0930C01BF91AF919F9173
:100330008F913F912F910F900FBE0F901F901895A6
:1003400026E8230F0296A11DB11DD2CF1F920F9256
:100350000FB60F9211242F933F934F935F936F9398
:100360007F938F939F93AF93BF93EF93FF93E0910E
:100370000201F09103010995FF91EF91BF91AF91B7
:100380009F918F917F916F915F914F913F912F91AD
:100390000F900FBE0F901F9018951F920F920FB6DF
:1003A0000F9211242F933F934F935F936F937F93FB
:1003B0008F939F93AF93BF93EF93FF93E0910001CF
:1003C000F09101010995FF91EF91BF91AF919F913C
:1003D0008F917F916F915F914F913F912F910F90EE
:1003E0000FBE0F901F901895789484B5826084BDDD
:1003F00084B5816084BD85B5826085BD85B5816029
:1004000085BD80916E00816080936E0010928100A6
:100410008091810082608093810080918100816061
:100420008093810080918000816080938000809122
:10043000B10084608093B1008091B00081608093AE
:10044000B00080917A00846080937A0080917A0075
:10045000826080937A0080917A00816080937A0034
:1004600080917A00806880937A001092C10062E0E7
:1004700082E00E94CF0062E083E00E94CF00C4E0EF
:1004800061E08C2F0E94CF0060E08C2F0E947B00E7
:10049000CF5FC930A9F787EC90E09093010180937A
:1004A0000001809169008C7F80936900E89A8BEC51
:1004B00090E0909303018093020180916900837F13
:1004C000846080936900E99AC0E0D0E061E084E054
:1004D0000E947B000E94250160E084E00E947B0076
:1004E00061E085E00E947B000E94250160E085E0DC
:1004F0000E947B0061E086E00E947B000E94250153
:1005000060E086E00E947B00209701F30E940000DB
:06051000DDCFF894FFCFDF
:040516005B015B0129
:00000001FF
