:100000000C945C000C94EC010C94C5010C947900E8
:100010000C9479000C9479000C9479000C9479007C
:100020000C9479000C9479000C9479000C9479006C
:100030000C9479000C9479000C9479000C9479005C
:100040000C947B010C9479000C9479000C94790049
:100050000C9479000C9479000C9479000C9479003C
:100060000C9479000C947900000000002400270013
:100070002A0000000000250028002B0004040404CE
:100080000404040402020202020203030303030342
:10009000010204081020408001020408102001021F
:1000A00004081020000000080002010000030407FB
:1000B000000000000000000011241FBECFEFD8E0B8
:1000C000DEBFCDBF11E0A0E0B1E0E2EEF5E002C09E
:1000D00005900D92A430B107D9F721E0A4E0B1E07A
:1000E00001C01D92A931B207E1F70E9413020C94DE
:1000F000EF020C94000090E0FC01EC55FF4F2491BE
:10010000FC01E057FF4F3491FC01E458FF4FE491AC
:10011000EE23C9F0222339F0233001F1A8F4213075
:1001200019F1223029F1F0E0EE0FFF1FEE58FF4FDA
:10013000A591B4918FB7F894EC91611126C03095D8
:100140003E233C938FBF08952730A9F02830C9F093
:10015000243049F7809180008F7D03C0809180001A
:100160008F7780938000DFCF84B58F7784BDDBCF1E
:1001700084B58F7DFBCF8091B0008F778093B000E6
:10018000D2CF8091B0008F7DF9CF3E2BDACFCF93C5
:10019000DF9390E0FC01E057FF4F249184589F4F7C
:1001A000FC0184918823D1F090E0880F991FFC0115
:1001B000E859FF4FA591B491FC01EE58FF4FC5914E
:1001C000D491623071F49FB7F8943C91822F80955E
:1001D00083238C93E8812E2B28839FBFDF91CF91BF
:1001E00008958FB7F894EC912E2B2C938FBFF6CFF8
:1001F0002FB7F8946091090170910A0180910B0169
:1002000090910C012FBF0895CF92DF92EF92FF9251
:100210000E94F8006B017C010E94F8006C197D09B6
:100220008E099F09683572408105910518F561E0D6
:1002300087E00E947B000E94F8006C197D098E09FE
:100240009F096436710581059105A8F30E94F800A5
:100250006B017C0160E087E00E947B000E94F80057
:100260006C197D098E099F09643671058105910518
:10027000A8F3CECFFF90EF90DF90CF900895CF926C
:10028000DF92EF92FF920E94F8006B017C010E94C6
:10029000F8006C197D098E099F0968357240810547
:1002A000910518F561E088E00E947B000E94F8004B
:1002B0006C197D098E099F096436710581059105C8
:1002C000A8F30E94F8006B017C0160E088E00E94C6
:1002D0007B000E94F8006C197D098E099F09643625
:1002E000710581059105A8F3CECFFF90EF90DF90C7
:1002F000CF90089508951F920F920FB60F92112478
:100300002F933F938F939F93AF93BF938091090156
:1003100090910A01A0910B01B0910C01309108015C
:1003200023E0230F2D3758F50196A11DB11D209311
:1003300008018093090190930A01A0930B01B093E7
:100340000C018091040190910501A0910601B091EA
:1003500007010196A11DB11D809304019093050131
:10036000A0930601B0930701BF91AF919F918F9128
:100370003F912F910F900FBE0F901F90189526E878
:10038000230F0296A11DB11DD2CF1F920F920FB65F
:100390000F9211242F933F934F935F936F937F930B
:1003A0008F939F93AF93BF93EF93FF93E0910201DD
:1003B000F09103010995FF91EF91BF91AF919F914A
:1003C0008F917F916F915F914F913F912F910F90FE
:1003D0000FBE0F901F9018951F920F920FB60F929D
:1003E00011242F933F934F935F936F937F938F933A
:1003F0009F93AF93BF93EF93FF93E0910001F09130
:1004000001010995FF91EF91BF91AF919F918F915C
:100410007F916F915F914F913F912F910F900FBE00
:100420000F901F901895789484B5826084BD84B530
:10043000816084BD85B5826085BD85B5816085BDDF
:1004400080916E00816080936E0010928100809197
:10045000810082608093810080918100816080931F
:100460008100809180008160809380008091B10044
:1004700084608093B1008091B00081608093B0006F
:1004800080917A00846080937A0080917A00826003
:1004900080937A0080917A00816080937A008091C5
:1004A0007A00806880937A001092C10062E082E056
:1004B0000E94C70062E083E00E94C700C4E061E0E0
:1004C0008C2F0E94C70060E08C2F0E947B00CF5FC2
:1004D000C930A9F784E091E0909301018093000175
:1004E000809169008C7F80936900E89A8FE391E0A6
:1004F000909303018093020180916900837F84605F
:1005000080936900E99AC0E0D0E011E08091110188
:1005100081110CC00E94F80060930D0170930E01D0
:1005200080930F01909310011093110161E084E01A
:100530000E947B000E94F800C0900D01D0900E0137
:10054000E0900F01F09010016C197D098E099F0950
:10055000643671058105910568F30E94F8006B010E
:100560007C0160E084E00E947B0061E085E00E9405
:100570007B000E94F8006C197D098E099F09643682
:10058000710581059105A8F30E94F8006B017C01BB
:1005900060E085E00E947B0061E086E00E947B00D5
:1005A0000E94F8006C197D098E099F096436710557
:1005B00081059105A8F30E94F80060930D017093E6
:1005C0000E0180930F019093100160E086E00E947D
:1005D0007B00209709F49ACF0E94000097CFF894EF
:0205E000FFCF4B
:0405E2007A017A011F
:107E0000112484B714BE81FFF0D085E080938100F7
:107E100082E08093C00088E18093C10086E0809377
:107E2000C20080E18093C4008EE0C9D0259A86E02C
:107E300020E33CEF91E0309385002093840096BBD3
:107E4000B09BFECF1D9AA8958150A9F7CC24DD24C4
:107E500088248394B5E0AB2EA1E19A2EF3E0BF2EE7
:107E6000A2D0813461F49FD0082FAFD0023811F036
:107E7000013811F484E001C083E08DD089C08234E0
:107E800011F484E103C0853419F485E0A6D080C0E4
:107E9000853579F488D0E82EFF2485D0082F10E0AE
:107EA000102F00270E291F29000F111F8ED06801E7
:107EB0006FC0863521F484E090D080E0DECF843638
:107EC00009F040C070D06FD0082F6DD080E0C81688
:107ED00080E7D80618F4F601B7BEE895C0E0D1E017
:107EE00062D089930C17E1F7F0E0CF16F0E7DF06D8
:107EF00018F0F601B7BEE89568D007B600FCFDCFD4
:107F0000A601A0E0B1E02C9130E011968C91119780
:107F100090E0982F8827822B932B1296FA010C0160
:107F200087BEE89511244E5F5F4FF1E0A038BF0790
:107F300051F7F601A7BEE89507B600FCFDCF97BE46
:107F4000E89526C08437B1F42ED02DD0F82E2BD052
:107F50003CD0F601EF2C8F010F5F1F4F84911BD097
:107F6000EA94F801C1F70894C11CD11CFA94CF0C13
:107F7000D11C0EC0853739F428D08EE10CD085E9AC
:107F80000AD08FE07ACF813511F488E018D01DD067
:107F900080E101D065CF982F8091C00085FFFCCF94
:107FA0009093C60008958091C00087FFFCCF809118
:107FB000C00084FD01C0A8958091C6000895E0E648
:107FC000F0E098E1908380830895EDDF803219F02E
:107FD00088E0F5DFFFCF84E1DECF1F93182FE3DFCA
:107FE0001150E9F7F2DF1F91089580E0E8DFEE27F6
:047FF000FF270994CA
:027FFE00040479
:0400000300007E007B
:00000001FF
